:0400000007EF00F016
:100008007F8279ED22F071EF26F0000E4A6F000E24
:10001800496F2B0E4B6F010E4C6F49EF08F0250E00
:100028005E19D8B40CD027C1D9FF28C1DAFF5EC148
:10003800DFFF274B282B494B4A2B49EF08F0000ECE
:100048005B6F000E5A6F000E606F000E5F6F09D075
:100058005F8705D05F8103D0608701D05F85294B1A
:100068002A2B29C1F6FF2AC1F7FF0800F550200AFC
:10007800D8B4F0D7030AD8B4EFD70E0AD8B4E8D763
:100088001D0AD8B4EBD75FB75F9529C1F6FF2AC11F
:10009800F7FF0800F55036EC29F0D8A033D0000E51
:1000A80001015B6F000E5A6F5AC1AAF05BC1ABF039
:1000B800000E0001AD6F0A0EAC6FB4EC28F0AAC0B8
:1000C8005AF1ABC05BF129C1F6FF2AC1F7FF08005E
:1000D800F5CF31F1D00E01013125326F336BFF0EB0
:1000E800332332515A2733515B23294B2A2B29C1F9
:1000F800F6FF2AC1F7FF0800F55036EC29F0D8A022
:1001080019D0D2D729C1F6FF2AC1F7FF0800F55048
:100118002A0AD8A40FD04BC1D9FF4CC1DAFFDECFD1
:100128005AF1DDCF5BF1020E01014B27000E4C2383
:10013800294B2A2B29C1F6FF2AC1F7FF0800F550E1
:100148002E0AD8A456D00101608D294B2A2B29C12B
:10015800F6FF2AC1F7FF0800F5502A0AD8A417D0DD
:100168004BC1D9FF4CC1DAFFDECF5CF1DDCF5DF1C9
:10017800020E4B27000E4C235DAF06D0000E5D6FBC
:10018800000E5C6F609D6089294B2A2B02D1000EFE
:100198005D6F000E5C6F22D05CC1AAF05DC1ABF050
:1001A800000EAD6F0A0EAC6FB4EC28F0AAC05CF17B
:1001B800ABC05DF129C1F6FF2AC1F7FF0800F5CFF2
:1001C80031F1D00E01013125326F336BFF0E33232D
:1001D80032515C2733515D23294B2A2B29C1F6FF65
:1001E8002AC1F7FF0800F55036EC29F0D8A0D1D085
:1001F800D3D7000E01015D6F000E5C6F6089C9D016
:100208006085F5D05F8DF3D0608B5F8B5F8FEFD00B
:100218004BC1D9FF4CC1DAFFDECF45F1DDCF46F146
:10022800020E4B27000E4C2345514611D8A404D08A
:10023800D60E456FFF0E466F000E486F000E476FD3
:1002480003D00101474B482B47514525316F485191
:100258004621326F31C1F6FF32C1F7FF000EF86E4A
:100268000F0EF76403D00800F55005D0F6CFE1FF74
:10027800F7CFE2FFE7500009D8A4E3D701015C51AA
:100288005D11D8B40ED047515C5D5D51800A316F65
:100298004851800A3159D8B004D05CC147F15DC1DA
:1002A80048F15A51475D5B514859D8B005D047517C
:1002B8005A5F48515B5B04D0000E5B6F000E5A6FAB
:1002C8005FA70BD030D027C1D9FF28C1DAFF200E95
:1002D800DF6E274B282B494B4A2B5A07D8A05B07C0
:1002E8005A29F1E15B29D8B41ED0EDD745C1F6FFF4
:1002F80046C1F7FF000EF86E27C1D9FF28C1DAFF03
:100308000F0EF76403D00800F55005D0F6CFE1FFD3
:10031800F7CFE2FFE750DF6E0101454B462B274B35
:10032800282B494B4A2B4707D8A048074729DEE125
:100338004829D8A4DBD75FB70CD049EF08F027C10C
:10034800D9FF28C1DAFF200EDF6E274B282B494B37
:100358004A2B5A07D8A05B075A29F1E15B29D8B480
:1003680049EF08F0ECD74BC1D9FF4CC1DAFFDF5099
:100378005E6F020E4B27000E4C235E0E456F010E7A
:10038800466F000E486F010E476F78D7C00E5F1397
:100398002ED029C1F6FF2AC1F7FF0101294B2A2BCC
:1003A8000800F5CF5EF15E51000AD8B456EF08F0A8
:1003B800580AD8B42AD73B0AD8B4D5D7070AD8B42C
:1003C80016D0020AD8B41CD70F0AD8B410D0060A1F
:1003D800D8B418D71F0AD8B417D7030AD8B418D76F
:1003E800060AD8B4D3D70D0AD8B410D7C6D7070E83
:1003F8006015D8B470D360A904D0000E5D6F060EE6
:100408005C6F4BC1D9FF4CC1DAFFDECF53F1DECFB1
:1004180054F1DDCF55F1030E4B27000E4C2355AF99
:1004280011D053C1AAF054C1ABF055C1ACF08EEC59
:1004380028F0AAC053F1ABC054F1ACC055F1030E7B
:1004480001015F13000E526F000E516F535154118A
:100458005511D8B487D0820E316FFF0E326F53C159
:1004680033F154C134F155C135F156C136F1100E8E
:1004780005D0D8903633353334333333E82EF9D7B3
:1004880033513125516F000E3221526F5107D8A0D8
:10049800520751C1AAF052C1ABF0000E0001AD6F76
:1004A800030EAC6FB4EC28F0AAC051F1ABC052F106
:1004B80051C1B0F052C1B1F0000EB36F0A0EB26F65
:1004C800FAEC20F0B0C051F1B1C052F1010152AFC5
:1004D80003D05107D8A0520751510008AFEC10F0D3
:1004E80009C14DF10AC14EF10BC14FF14DC1B8F030
:1004F8004EC1B9F04FC1BAF053C1BBF054C1BCF002
:1005080055C1BDF08DEC19F0B8C04DF1B9C04EF130
:10051800BAC04FF14DC1AAF04EC1ABF04FC1ACF01B
:10052800000EAD6F800EAE6F3F0EAF6F3FEC22F046
:10053800D8B005D001015107D8A0520713D04DC13A
:10054800AAF04EC1ABF04FC1ACF0000EAD6F200E5B
:10055800AE6F410EAF6F3FEC22F0D8A003D001017F
:10056800514B522B01015DBF06D05D511BE10D0EB1
:100578005C5DD8B017D053C115F154C116F155C1FF
:1005880017F15C51F0EC15F009C118F10AC119F125
:100598000BC11AF1E4EC17F015C153F116C154F16F
:1005A80017C155F1010152BF06D052511EE10A0E82
:1005B800515DD8B01AD0535154115511D8B455D0F3
:1005C80053C110F154C111F155C112F177EC1FF06C
:1005D8001051111112111311D8B452BF46D05251F3
:1005E80004E1020E515DD8A040D04DC1AAF04EC121
:1005F800ABF04FC1ACF0700E0001AD6F890EAE6F5D
:10060800400EAF6F3FEC22F0D8B003D00101F70ED7
:1006180002D00101F80E5127FF0E52235151AFECC1
:1006280010F009C14DF10AC14EF10BC14FF153C190
:10063800AAF054C1ABF055C1ACF04DC1ADF04EC1FC
:10064800AEF04FC1AFF03EEC1BF0AAC056F1ABC004
:1006580057F1ACC058F1ADC059F1000E0101536F0C
:10066800000E546F000E556F33D053C110F154C1B2
:1006780011F155C112F177EC1FF010C156F111C1FB
:1006880057F112C158F113C159F153C121F154C1A5
:1006980022F155C123F156C1B2F057C1B3F058C188
:1006A800B4F059C1B5F038EC25F0B2C024F1B3C0AC
:1006B80025F1B4C026F1DCEC26F021C153F122C1AA
:1006C80054F123C155F1000E0101526F000E516F14
:1006D800010E5E6F0A0E5E19D8B418D05E51040D73
:1006E8002F0EF324F66EFF0EF420F76E0900F55076
:1006F800565D0900F55057590900F5505859090039
:10070800F5505959D8A002D05E2BE4D75E515C252C
:10071800316F000E5D21326F515131275251322312
:1007280031515A5F32515B5B60B704D05C515D1147
:10073800D8B403D05A07D8A05B075FC131F1030EC4
:100748003117D8B403D05A07D8A05B075FA53CD0AF
:100758005FC131F1030E3117D8B414D05FB104D0A2
:10076800000E3C6F2B0E03D0000E3C6F2D0E3B6F1E
:1007780027C1D9FF28C1DAFF3BC1DFFF274B282B50
:10078800494B4A2B5FA118D027C1D9FF28C1DAFFEE
:10079800200EDF6E274B282B494B4A2B0DD027C143
:1007A800D9FF28C1DAFF300EDF6E274B282B494BC3
:1007B8004A2B5A07D8A05B075BBF89D05B51EFE192
:1007C8005A05D8A084D0EBD75FA70ED014D027C184
:1007D800D9FF28C1DAFF200EDF6E274B282B494BA3
:1007E8004A2B5A07D8A05B075BBF05D05B51EFE1E6
:1007F8005A05D8B0ECD75FC131F1030E3117D8B420
:1008080015D05FB104D0000E3E6F2B0E03D0000E42
:100818003E6F2D0E3D6F27C1D9FF28C1DAFF3DC1BC
:10082800DFFF274B282B494B4A2B51D05FA14FD0D4
:1008380027C1D9FF28C1DAFF200E47D056C1AAF038
:1008480057C1ABF058C1ACF059C1ADF05E51040DC1
:100858002F0EF324F66EFF0EF420F76E0900F5CF85
:10086800AEF00900F5CFAFF00900F5CFB0F00A00FF
:10087800F5CFB1F03CEC21F0AAC04DF1ABC04EF180
:10088800ACC04FF1ADC050F14DC1B7F04EC1B8F09A
:100898004FC1B9F050C1BAF00A0EBB6F000EBC6F61
:1008A800000EBD6F000EBE6F27EC23F0B7C04DF1F0
:1008B800B8C04EF1B9C04FF1BAC050F101014D5165
:1008C800300F27C1D9FF28C1DAFFDF6EAAD75E072C
:1008D8005E29D8B40ED0B2D727C1D9FF28C1DAFF14
:1008E800300EDF6E274B282B494B4A2B5107D8A0D7
:1008F800520752BF05D05251EFE15105D8B0ECD79D
:100908005DBF09D05D5104E1090E5C5DD8A003D03C
:10091800080E5E6F02D05CC15EF15E515C5F000E36
:100928005D5B5E51D8A402D060A70AD027C1D9FF69
:1009380028C1DAFF2E0EDF6E274B282B494B4A2B96
:100948005E51AFEC10F009C137F10AC138F10BC1A3
:1009580039F153C1BBF054C1BCF055C1BDF037C12A
:10096800B8F038C1B9F039C1BAF08DEC19F0B8C097
:1009780010F1B9C011F1BAC012F177EC1FF010C133
:1009880056F111C157F112C158F113C159F172D082
:1009980056C1AAF057C1ABF058C1ACF059C1ADF07F
:1009A8005E51040D2F0EF324F66EFF0EF420F76E41
:1009B8000900F5CFAEF00900F5CFAFF00900F5CF8B
:1009C800B0F00A00F5CFB1F03CEC21F0AAC04DF12F
:1009D800ABC04EF1ACC04FF1ADC050F14DC1B7F056
:1009E8004EC1B8F04FC1B9F050C1BAF00A0EBB6F92
:1009F800000EBC6F000EBD6F000EBE6F27EC23F01B
:100A0800B7C04DF1B8C04EF1B9C04FF1BAC050F1FE
:100A180001014D51300F27C1D9FF28C1DAFFDF6E20
:100A2800274B282B494B4A2B56C1B7F057C1B8F072
:100A380058C1B9F059C1BAF05E51040D2F0EF32414
:100A4800F66EFF0EF420F76E0900F5CFBBF0090033
:100A5800F5CFBCF00900F5CFBDF00A00F5CFBEF028
:100A680027EC23F0B7C056F1B8C057F1B9C058F118
:100A7800BAC059F101015E075E29D8B40ED088D7F3
:100A880027C1D9FF28C1DAFF300EDF6E274B282B8C
:100A9800494B4A2B5C07D8A05D075C515D11D8A46F
:100AA800EFD75FB75BBFF1D25B5103E15A05D8A01E
:100AB800ECD227C1D9FF28C1DAFF200EDF6E274B01
:100AC800282B494B4A2B5A07D8A05B075A515B1170
:100AD800D8B4DBD2EED75FC131F1C00E3117D8A43C
:100AE8001ED04BC1D9FF4CC1DAFFDECF56F1DDCFA6
:100AF80057F1000E57BFFF0E586F596F020E4B2764
:100B0800000E4C2359AF1DD0030E5F13591F581FF9
:100B1800571F566D000E57235823592312D04BC127
:100B2800D9FF4CC1DAFFDECF31F1DDCF32F131C16F
:100B380056F132C157F1586B596B020E4B27000E14
:100B48004C235C515D11D8A463D0565157115811EC
:100B58005911D8A45DD05C4B5D2B5AD0010E5E6F45
:100B68000A0E5E19D8B462D05E51040D2F0EF3241C
:100B7800F66EFF0EF420F76E0900F550565D090079
:100B8800F55057590900F55058590900F550595969
:100B9800D8A04CD05E2BE4D7010E5E6F080E5E190C
:100BA800D8B444D05E51040D0F0EF324F66EFF0E38
:100BB800F420F76E0900F550565D0900F5505759B5
:100BC8000900F55058590900F5505959D8A02ED0A8
:100BD8005E2BE4D7010E5E6F0B0E5E19D8B426D0DB
:100BE8005E51040D950EF324F66EFE0EF420F76E9A
:100BF8000900F550565D0900F55057590900F550A0
:100C080058590900F5505959D8A010D05E2BE4D78F
:100C18005F51C00B000AD8B4A1D7400AD8B4DAD7BC
:100C2800C00AD8B4B9D7400AD8B498D75E51316F42
:100C3800326B5C51315D3251800A336F5D51800AED
:100C48003359D8B003D05CC15EF110D05E51316F1A
:100C5800326B31515C5D5D51800A336F3251800ACD
:100C68003359D8B003D05EC15CF15D6B5A515B114A
:100C7800D8B409D05FC131F1030E3117D8B403D00D
:100C88005A07D8A05B0760AD13D05A515C5D5D511F
:100C9800800A316F5B51800A3159D8B005D05C5158
:100CA8005A5F5D515B5B04D0000E5B6F000E5A6F9C
:100CB800C40E5F15316F080E6015326F400E311982
:100CC8000CE1080E3219D8A408D05A515B11D8B4D7
:100CD80022D05A07D8A05B071ED0C00E5F15316F0F
:100CE800080E6015326F800E311915E1080E3219A1
:100CF800D8A411D05BBF0BD05B5104E1030E5A5D41
:100D0800D8A005D0FE0E5A27FF0E5B2304D0000E94
:100D18005B6F000E5A6F5E51316F326B5A51315D05
:100D28003251800A336F5B51800A3359D8B005D0ED
:100D38005E515A5F000E5B5B04D0000E5B6F000EC5
:100D48005A6F5FA553D05FC131F1030E3117D8B484
:100D58000BD027C1D9FF28C1DAFF2D0EDF6E274B34
:100D6800282B494B4A2B30D05FA106D027C1D9FF89
:100D780028C1DAFF200EF2D7C00E5F15316F080EBA
:100D88006015326F800E31191FE1080E3219D8A490
:100D98001BD027C1D9FF28C1DAFF300EDF6E274BE1
:100DA800282B494B4A2B5FBB04D0000E406F780EAE
:100DB80003D0000E406F580E3F6F27C1D9FF28C1DE
:100DC800DAFF3FC1DFFFCBD75A515B11D8B43CD112
:100DD80027C1D9FF28C1DAFF300EDF6E274B282B39
:100DE800494B4A2B5A07D8A05B07EED75A515B11DB
:100DF800D8A45FB711D027C1D9FF28C1DAFF200EC8
:100E0800DF6E274B282B494B4A2B5A07D8A05B0784
:100E18005A515B11D8A4EFD75FC131F1030E3117D6
:100E2800D8B40BD027C1D9FF28C1DAFF2D0EDF6E49
:100E3800274B282B494B4A2B08D05FA106D027C146
:100E4800D9FF28C1DAFF200EF2D7C00E5F15316F27
:100E5800080E6015326F400E31190FE1080E321975
:100E6800D8A40BD027C1D9FF28C1DAFF300EDF6E16
:100E7800274B282B494B4A2BE7D0C00E5F15316F03
:100E8800080E6015326F800E31191FE1080E3219F5
:100E9800D8A4DAD027C1D9FF28C1DAFF300EDF6E17
:100EA800274B282B494B4A2B5FBB04D0000E426FBF
:100EB800780E03D0000E426F580E416F27C1D9FF3C
:100EC80028C1DAFF41C1DFFFD3D7BED05CC131F101
:100ED8005DC132F1D89031373237D8903137323757
:100EE8002F0E3125F66EFF0E3221F76E0900F5CF71
:100EF800AEF00900F5CFAFF00900F5CFB0F00A0069
:100F0800F5CFB1F056C1AAF057C1ABF058C1ACF05B
:100F180059C1ADF03CEC21F0AAC0B7F0ABC0B8F0B5
:100F2800ACC0B9F0ADC0BAF00A0EBB6F000EBC6F12
:100F3800000EBD6F000EBE6F27EC23F00001B75105
:100F48006AD056C1AAF057C1ABF058C1ACF059C12C
:100F5800ADF05CC131F15DC132F1D8903137323733
:100F6800D890313732370F0E3125F66EFF0E322109
:100F7800F76E0900F5CFAEF00900F5CFAFF0090024
:100F8800F5CFB0F00A00F5CFB1F03CEC21F0AA5152
:100F98000F0B01013A6F5FBB04D0A30E436FFF0E26
:100FA80003D0920E436FFF0E446F3A514325316FC1
:100FB800000E4421326F31C1F6FF32C1F7FF08003D
:100FC800F5CF5EF13AD056C1AAF057C1ABF058C17F
:100FD800ACF059C1ADF05CC131F15DC132F1D890CE
:100FE80031373237D89031373237950E3125F66E92
:100FF800FE0E3221F76E0900F5CFAEF00900F5CFED
:10100800AFF00900F5CFB0F00A00F5CFB1F03CEC35
:1010180021F0AA51070B300F01015E6F0ED05F510E
:10102800C00B000AD8B452D7400AD8B4CCD7C00AEB
:10103800D8B487D7400AD8B449D727C1D9FF28C11F
:10104800DAFF5EC1DFFF14D75C07D8A05D075C2913
:10105800E6E15D29D8A4E3D75FB75BBF16D05B5143
:1010680003E15A05D8A011D027C1D9FF28C1DAFF5A
:10107800200EDF6E274B282B494B4A2B5A07D8A046
:101088005B075A515B11D8A4EFD729C1F6FF2AC1D3
:10109800F7FF294B2A2B0800F5CF5EF15E51D8A443
:1010A80013EF00F027C1D9FF28C1DAFFDF6A49C171
:1010B80027F14AC128F11200000E0001936F000EBB
:1010C800926F4F0E946F956B9CEF10F0250EA71939
:1010D800D8B40CD04BC0D9FF4CC0DAFFA7C0DFFF93
:1010E8004B4A4C2A924B932B9CEF10F0000EA46FA6
:1010F800000EA36F000EA96F000EA86F09D0A88775
:1011080005D0A88103D0A98701D0A8854D4A4E2AC9
:101118004DC0F6FF4EC0F7FF0800F550200AD8B4BE
:10112800F0D7030AD8B4EFD70E0AD8B4E8D71D0A07
:10113800D8B4EBD7A8B7A8954DC0F6FF4EC0F7FFB7
:101148000800F55067EC29F0D8A032D0000E000155
:10115800A46F000EA36FA3C001F0A4C002F0000E9C
:10116800046E0A0E036EDAEC28F001C0A3F002C088
:10117800A4F04DC0F6FF4EC0F7FF0800F5CF55F0BC
:10118800D00E5524566E576AFF0E5722565000014E
:10119800A3275750A4234D4A4E2A4DC0F6FF4EC0F0
:1011A800F7FF0800F55067EC29F0D8A019D0D3D77D
:1011B8004DC0F6FF4EC0F7FF0800F5502A0AD8A424
:1011C8000FD094C0D9FF95C0DAFFDECFA3F0DDCFF2
:1011D800A4F0020E00019427000E95234D4A4E2AD2
:1011E8004DC0F6FF4EC0F7FF0800F5502E0AD8A4F0
:1011F80056D00001A98D4D4A4E2A4DC0F6FF4EC06B
:10120800F7FF0800F5502A0AD8A417D094C0D9FFD0
:1012180095C0DAFFDECFA5F0DDCFA6F0020E942749
:10122800000E9523A6AF06D0000EA66F000EA56F80
:10123800A99DA9894D4A4E2A01D1000EA66F000E1C
:10124800A56F22D0A5C001F0A6C002F0000E046E62
:101258000A0E036EDAEC28F001C0A5F002C0A6F071
:101268004DC0F6FF4EC0F7FF0800F5CF55F0D00E81
:101278005524566E576AFF0E572256500001A5276F
:101288005750A6234D4A4E2A4DC0F6FF4EC0F7FFD1
:101298000800F55067EC29F0D8A0D0D0D3D7000EBD
:1012A8000001A66F000EA56FA989C8D0A985F4D042
:1012B800A88DF2D0A98BA88BA88FEED094C0D9FFA7
:1012C80095C0DAFFDECF8EF0DDCF8FF0020E9427C7
:1012D800000E95238E518F11D8A404D0D60E8E6F90
:1012E800FF0E8F6F000E916F000E906F03D00001FC
:1012F800904B912B90518E25556E91518F21566EA2
:1013080055C0F6FF56C0F7FF000EF86E0F0EF764D3
:1013180003D00800F55005D0F6CFE1FFF7CFE2FF84
:10132800E7500009D8A4E3D70001A551A611D8B405
:101338000ED09051A55DA651800A556E9151800A34
:101348005558D8B004D0A5C090F0A6C091F0A351CC
:10135800905DA4519159D8B005D09051A35F915197
:10136800A45B04D0000EA46F000EA36FA8A70BD037
:1013780030D04BC0D9FF4CC0DAFF200EDF6E4B4A8D
:101388004C2A924B932BA307D8A0A407A329F1E1D9
:10139800A429D8B41ED0EDD78EC0F6FF8FC0F7FFB2
:1013A800000EF86E4BC0D9FF4CC0DAFF0F0EF76481
:1013B80003D00800F55005D0F6CFE1FFF7CFE2FFE4
:1013C800E750DF6E00018E4B8F2B4B4A4C2A924B15
:1013D800932B9007D8A091079029DEE19129D8A4F2
:1013E800DBD7A8B70CD09CEF10F04BC0D9FF4CC08E
:1013F800DAFF200EDF6E4B4A4C2A924B932BA30741
:10140800D8A0A407A329F1E1A429D8B49CEF10F02F
:10141800ECD794C0D9FF95C0DAFFDF50A76F020E52
:101428009427000E9523A70E8E6F8F6B000E916F79
:10143800010E906F79D7C00EA8132ED04DC0F6FFBD
:101448004EC0F7FF4D4A4E2A0800F5CFA7F000011D
:10145800A751000AD8B4A9EF10F0580AD8B42BD76E
:101468003B0AD8B4D6D7070AD8B416D0020AD8B4DB
:101478001DD70F0AD8B410D0060AD8B419D71F0A36
:10148800D8B418D7030AD8B419D7060AD8B4D3D70A
:101498000D0AD8B411D7C7D7070EA915D8B46FD37A
:1014A800A9A904D0000EA66F060EA56F94C0D9FF97
:1014B80095C0DAFFDECF9CF0DECF9DF0DDCF9EF049
:1014C800030E9427000E95239EAF10D09CC001F008
:1014D8009DC002F09EC003F012EC29F001C09CF000
:1014E80002C09DF003C09EF0030EA813000E9B6F70
:1014F800000E9A6F9C519D119E11D8B486D0820E11
:10150800556EFF0E566E9CC057F09DC058F09EC099
:1015180059F09FC05AF0100E05D0D8905A3259325F
:1015280058325732E82EF9D7575055249A6F000E83
:1015380056209B6F9A07D8A09B079AC001F09BC0C2
:1015480002F0000E046E030E036EDAEC28F001C000
:101558009AF002C09BF09AC007F09BC008F0000EFA
:101568000A6E0A0E096E7EEC21F007C09AF008C0D8
:101578009BF000019BAF03D09A07D8A09B079A5114
:1015880000083CEC14F01EC096F01FC097F020C075
:1015980098F096C00FF097C010F098C011F09CC05A
:1015A80012F09DC013F09EC014F0B8EC1CF00FC0F0
:1015B80096F010C097F011C098F096C036F097C01A
:1015C80037F098C038F0000E396E800E3A6E3F0E34
:1015D8003B6EEDEC22F0D8B005D000019A07D8A0F8
:1015E8009B0713D096C036F097C037F098C038F0F4
:1015F800000E396E200E3A6E410E3B6EEDEC22F075
:10160800D8A003D000019A4B9B2B0001A6BF06D09F
:10161800A6511BE10D0EA55DD8B017D09CC02AF0CD
:101628009DC02BF09EC02CF0A551F2EC16F01EC008
:101638002DF01FC02EF020C02FF0B9EC18F02AC0F2
:101648009CF02BC09DF02CC09EF000019BBF06D0E3
:101658009B5120E10A0E9A5DD8B01CD09C519D1177
:101668009E11D8B456D09CC03CF09DC03DF09EC0A1
:101678003EF0E2EC1FF03C503D103E103F10D8A465
:1016880048D000019BBF45D09B5104E1020E9A5DF2
:10169800D8A03FD096C036F097C037F098C038F041
:1016A800700E396E890E3A6E400E3B6EEDEC22F0EC
:1016B800D8B003D00001F70E02D00001F80E9A2727
:1016C800FF0E9B239A513CEC14F01EC096F01FC0ED
:1016D80097F020C098F09CC001F09DC002F09EC019
:1016E80003F096C004F097C005F098C006F0BEEC71
:1016F8001BF001C09FF002C0A0F003C0A1F004C01D
:10170800A2F0000E00019C6F000E9D6F000E9E6FF0
:1017180033D09CC03CF09DC03DF09EC03EF0E2EC52
:101728001FF03CC09FF03DC0A0F03EC0A1F03FC0FC
:10173800A2F09CC036F09DC037F09EC038F09FC024
:1017480009F0A0C00AF0A1C00BF0A2C00CF0C3ECD5
:1017580025F009C039F00AC03AF00BC03BF05FEC45
:1017680027F036C09CF037C09DF038C09EF0000EC0
:1017780000019B6F000E9A6F010EA76F0A0EA71942
:10178800D8B418D0A751040D2F0EF324F66EFF0E0F
:10179800F420F76E0900F5509F5D0900F550A05937
:1017A8000900F550A1590900F550A259D8A002D056
:1017B800A72BE4D7A751A525556E000EA621566E76
:1017C8009A5155269B5156225550A35F5650A45BFB
:1017D800A9B704D0A551A611D8B403D0A307D8A09F
:1017E800A407A8C055F0030E5516D8B403D0A30714
:1017F800D8A0A407A8A53CD0A8C055F0030E55163C
:10180800D8B414D0A8B104D0000E846F2B0E03D026
:10181800000E846F2D0E836F4BC0D9FF4CC0DAFFCA
:1018280083C0DFFF4B4A4C2A924B932BA8A118D0B8
:101838004BC0D9FF4CC0DAFF200EDF6E4B4A4C2A52
:10184800924B932B0DD04BC0D9FF4CC0DAFF300E12
:10185800DF6E4B4A4C2A924B932BA307D8A0A407C0
:10186800A4BF89D0A451EFE1A305D8A084D0EBD7B9
:10187800A8A70ED014D04BC0D9FF4CC0DAFF200E59
:10188800DF6E4B4A4C2A924B932BA307D8A0A40790
:10189800A4BF05D0A451EFE1A305D8B0ECD7A8C0E8
:1018A80055F0030E5516D8B415D0A8B104D0000EC3
:1018B800866F2B0E03D0000E866F2D0E856F4BC0E2
:1018C800D9FF4CC0DAFF85C0DFFF4B4A4C2A924B48
:1018D800932B51D0A8A14FD04BC0D9FF4CC0DAFFF1
:1018E800200E47D09FC001F0A0C002F0A1C003F0B5
:1018F800A2C004F0A751040D2F0EF324F66EFF0EBC
:10190800F420F76E0900F5CF05F00900F5CF06F0D1
:101918000900F5CF07F00A00F5CF08F0C0EC21F078
:1019280001C096F002C097F003C098F004C099F087
:1019380096C00EF097C00FF098C010F099C011F043
:101948000A0E126E000E136E000E146E000E156E47
:1019580071EC24F00EC096F00FC097F010C098F00C
:1019680011C099F000019651300F4BC0D9FF4CC0FF
:10197800DAFFDF6EAAD7A707A729D8B40ED0B2D747
:101988004BC0D9FF4CC0DAFF300EDF6E4B4A4C2AF1
:10199800924B932B9A07D8A09B079BBF05D09B51CE
:1019A800EFE19A05D8B0ECD7A6BF09D0A65104E15B
:1019B800090EA55DD8A003D0080EA76F02D0A5C058
:1019C800A7F0A751A55F000EA65BA751D8A402D027
:1019D800A9A70AD04BC0D9FF4CC0DAFF2E0EDF6E84
:1019E8004B4A4C2A924B932BA7513CEC14F01EC047
:1019F80080F01FC081F020C082F09CC012F09DC012
:101A080013F09EC014F080C00FF081C010F082C0A7
:101A180011F0B8EC1CF00FC03CF010C03DF011C044
:101A28003EF0E2EC1FF03CC09FF03DC0A0F03EC08D
:101A3800A1F03FC0A2F072D09FC001F0A0C002F098
:101A4800A1C003F0A2C004F0A751040D2F0EF32487
:101A5800F66EFF0EF420F76E0900F5CF05F00900C9
:101A6800F5CF06F00900F5CF07F00A00F5CF08F02A
:101A7800C0EC21F001C096F002C097F003C098F0C6
:101A880004C099F096C00EF097C00FF098C010F0FF
:101A980099C011F00A0E126E000E136E000E146E2D
:101AA800000E156E71EC24F00EC096F00FC097F082
:101AB80010C098F011C099F000019651300F4BC03A
:101AC800D9FF4CC0DAFFDF6E4B4A4C2A924B932B5E
:101AD8009FC00EF0A0C00FF0A1C010F0A2C011F07E
:101AE800A751040D2F0EF324F66EFF0EF420F76EA7
:101AF8000900F5CF12F00900F5CF13F00900F5CF72
:101B080014F00A00F5CF15F071EC24F00EC09FF028
:101B18000FC0A0F010C0A1F011C0A2F00001A707EB
:101B2800A729D8B40ED088D74BC0D9FF4CC0DAFF4C
:101B3800300EDF6E4B4A4C2A924B932BA507D8A048
:101B4800A607A551A611D8A4EFD7A8B7A4BFF0D26D
:101B5800A45103E1A305D8A0EBD24BC0D9FF4CC0D8
:101B6800DAFF200EDF6E4B4A4C2A924B932BA307C9
:101B7800D8A0A407A351A411D8B4DAD2EED7A8C02C
:101B880055F0C00E5516D8A41ED094C0D9FF95C0E4
:101B9800DAFFDECF9FF0DDCFA0F0000EA0BFFF0E72
:101BA800A16FA26F020E9427000E9523A2AF1DD03D
:101BB800030EA813A21FA11FA01F9F6D000EA02334
:101BC800A123A22312D094C0D9FF95C0DAFFDECF9B
:101BD80055F0DDCF56F055C09FF056C0A0F0A16B70
:101BE800A26B020E9427000E9523A551A611D8A426
:101BF80063D09F51A011A111A211D8A45DD0A54B0B
:101C0800A62B5AD0010EA76F0A0EA719D8B462D016
:101C1800A751040D2F0EF324F66EFF0EF420F76E75
:101C28000900F5509F5D0900F550A0590900F550CD
:101C3800A1590900F550A259D8A04CD0A72BE4D738
:101C4800010EA76F080EA719D8B444D0A751040DE8
:101C58000F0EF324F66EFF0EF420F76E0900F55010
:101C68009F5D0900F550A0590900F550A1590900D8
:101C7800F550A259D8A02ED0A72BE4D7010EA76FF4
:101C88000B0EA719D8B426D0A751040D950EF3242E
:101C9800F66EFE0EF420F76E0900F5509F5D090000
:101CA800F550A0590900F550A1590900F550A2595D
:101CB800D8A010D0A72BE4D7A851C00B000AD8B4DD
:101CC800A1D7400AD8B4DAD7C00AD8B4B9D7400ADD
:101CD800D8B498D7A751556E566AA551555C565039
:101CE800800A576EA651800A5758D8B003D0A5C0AD
:101CF800A7F010D0A751556E566A5550A55DA6514C
:101D0800800A576E5650800A5758D8B003D0A7C0DB
:101D1800A5F0A66BA351A411D8B409D0A8C055F05A
:101D2800030E5516D8B403D0A307D8A0A407A9ADAD
:101D380013D0A351A55DA651800A556EA451800AFF
:101D48005558D8B005D0A551A35FA651A45B04D0BF
:101D5800000EA46F000EA36FC40EA815556E080ED2
:101D6800A915566E400E55180CE1080E5618D8A441
:101D780008D0A351A411D8B422D0A307D8A0A4078F
:101D88001ED0C00EA815556E080EA915566E800EE9
:101D9800551815E1080E5618D8A411D0A4BF0BD0B9
:101DA800A45104E1030EA35DD8A005D0FE0EA3271D
:101DB800FF0EA42304D0000EA46F000EA36FA7513A
:101DC800556E566AA351555C5650800A576EA451F9
:101DD800800A5758D8B005D0A751A35F000EA45B5E
:101DE80004D0000EA46F000EA36FA8A553D0A8C0FE
:101DF80055F0030E5516D8B40BD04BC0D9FF4CC0C4
:101E0800DAFF2D0EDF6E4B4A4C2A924B932B30D0C3
:101E1800A8A106D04BC0D9FF4CC0DAFF200EF2D7DC
:101E2800C00EA815556E080EA915566E800E5518C9
:101E38001FE1080E5618D8A41BD04BC0D9FF4CC0C0
:101E4800DAFF300EDF6E4B4A4C2A924B932BA8BB1D
:101E580004D0000E886F780E03D0000E886F580EDD
:101E6800876F4BC0D9FF4CC0DAFF87C0DFFFCBD7E5
:101E7800A351A411D8B43BD14BC0D9FF4CC0DAFF51
:101E8800300EDF6E4B4A4C2A924B932BA307D8A0F7
:101E9800A407EED7A351A411D8A4A8B711D04BC05A
:101EA800D9FF4CC0DAFF200EDF6E4B4A4C2A924B0A
:101EB800932BA307D8A0A407A351A411D8A4EFD7A4
:101EC800A8C055F0030E5516D8B40BD04BC0D9FF97
:101ED8004CC0DAFF2D0EDF6E4B4A4C2A924B932BE7
:101EE80008D0A8A106D04BC0D9FF4CC0DAFF200EFD
:101EF800F2D7C00EA815556E080EA915566E400EDD
:101F080055180FE1080E5618D8A40BD04BC0D9FFAE
:101F18004CC0DAFF300EDF6E4B4A4C2A924B932BA3
:101F2800E6D0C00EA815556E080EA915566E800E7F
:101F380055181FE1080E5618D8A4D9D04BC0D9FFA0
:101F48004CC0DAFF300EDF6E4B4A4C2A924B932B73
:101F5800A8BB04D0000E8A6F780E03D0000E8A6FDB
:101F6800580E896F4BC0D9FF4CC0DAFF89C0DFFF1C
:101F7800D3D7BDD0A5C055F0A6C056F0D8905536D9
:101F88005636D890553656362F0E5524F66EFF0E17
:101F98005620F76E0900F5CF05F00900F5CF06F0D9
:101FA8000900F5CF07F00A00F5CF08F09FC001F04F
:101FB800A0C002F0A1C003F0A2C004F0C0EC21F060
:101FC80001C00EF002C00FF003C010F004C011F001
:101FD8000A0E126E000E136E000E146E000E156EB1
:101FE80071EC24F00E506AD09FC001F0A0C002F03E
:101FF800A1C003F0A2C004F0A5C055F0A6C056F0D9
:10200800D89055365636D890553656360F0E552434
:10201800F66EFF0E5620F76E0900F5CF05F00900A1
:10202800F5CF06F00900F5CF07F00A00F5CF08F064
:10203800C0EC21F001500F0B00018D6FA8BB04D03C
:10204800A30E8B6FFF0E03D0920E8B6FFF0E8C6F5B
:102058008D518B25556E000E8C21566E55C0F6FF9E
:1020680056C0F7FF0800F5CFA7F03AD09FC001F09F
:10207800A0C002F0A1C003F0A2C004F0A5C055F0B2
:10208800A6C056F0D89055365636D890553656369E
:10209800950E5524F66EFE0E5620F76E0900F5CF04
:1020A80005F00900F5CF06F00900F5CF07F00A00A2
:1020B800F5CF08F0C0EC21F00150070B300F0001FC
:1020C800A76F0ED0A851C00B000AD8B453D7400A46
:1020D800D8B4CCD7C00AD8B487D7400AD8B44AD71E
:1020E8004BC0D9FF4CC0DAFFA7C0DFFF15D7A50743
:1020F800D8A0A607A529E6E1A629D8A4E3D7A8B7BA
:10210800A4BF16D0A45103E1A305D8A011D04BC099
:10211800D9FF4CC0DAFF200EDF6E4B4A4C2A924B97
:10212800932BA307D8A0A407A351A411D8A4EFD731
:102138004DC0F6FF4EC0F7FF4D4A4E2A0800F5CFB6
:10214800A7F0A751D8A46AEF08F04BC0D9FF4CC03C
:10215800DAFFDF6A12000F6F01010FAFE5D00F6DD4
:102168000F51800A120FD8A080D0000E0001B36F63
:102178000A0EB26F000EAD6F640EAC6F01010F5105
:102188000001AA6FAB6BAABFAB0760EC23F0AAC033
:10219800B0F0ABC0B1F0FAEC20F0090EB027B051A6
:1021A800030DE80EF324F66EFE0EF420F76E090018
:1021B800F5CFBBF00900F5CFBCF00A00F5CFBDF0B4
:1021C800000EB36F640EB26F01010F510001B06FC2
:1021D800B16BB0BFB107FAEC20F0120EB027B051C6
:1021E800030DE80EF324F66EFE0EF420F76E0900D8
:1021F800F5CFB8F00900F5CFB9F00A00F5CFBAF07D
:102208008DEC19F0B8C00CF1B9C00DF1BAC00EF1DF
:102218000CC1B8F00DC1B9F00EC1BAF0000EAD6F27
:102228000A0EAC6F01010F510001AA6FAB6BAABF78
:10223800AB0760EC23F0AA51030DE80EF324F66E09
:10224800FE0EF420F76E0900F5CFBBF00900F5CFBC
:10225800BCF00A00F5CFBDF08DEC19F0B8C009F15B
:10226800B9C00AF1BAC00BF112000F51800A750FFC
:10227800D8A048D0000E0001B36F0A0EB26F01015A
:102288000F510001B06FB16BB0BFB107FAEC20F08D
:10229800090EB027B051030DE80EF324F66EFE0EBA
:1022A800F420F76E0900F5CFB8F00900F5CFB9F0C2
:1022B8000A00F5CFBAF0000EAD6F0A0EAC6F01013F
:1022C8000F510001AA6FAB6BAABFAB0760EC23F0FC
:1022D800AA51030DE80EF324F66EFE0EF420F76EF5
:1022E8000900F5CFBBF00900F5CFBCF00A00F5CF27
:1022F800BDF08DEC19F0B8C009F1B9C00AF1BAC047
:102308000BF112000F51030DE80EF324F66EFE0ECA
:10231800F420F76E0900F5CF09F10900F5CF0AF1AD
:102328000A00F5CF0BF112000F51800A120FD8A046
:1023380080D0000E0001B36F0A0EB26F000EAD6FB1
:10234800640EAC6F01010F510001AA6FAB6BAABFFD
:10235800AB0760EC23F0AAC0B0F0ABC0B1F0FAEC68
:1023680020F0090EB027B051030DC10EF324F66E0C
:10237800FE0EF420F76E0900F5CFBBF00900F5CF8B
:10238800BCF00A00F5CFBDF0000EB36F640EB26F5B
:1023980001010F510001B06FB16BB0BFB107FAEC8A
:1023A80020F0120EB027B051030DC10EF324F66EC3
:1023B800FE0EF420F76E0900F5CFB8F00900F5CF4E
:1023C800B9F00A00F5CFBAF08DEC19F0B8C00CF1ED
:1023D800B9C00DF1BAC00EF10CC1B8F00DC1B9F019
:1023E8000EC1BAF0000EAD6F0A0EAC6F01010F51AD
:1023F8000001AA6FAB6BAABFAB0760EC23F0AA5130
:10240800030DC10EF324F66EFE0EF420F76E0900DC
:10241800F5CFBBF00900F5CFBCF00A00F5CFBDF051
:102428008DEC19F0B8C009F1B9C00AF1BAC00BF1C6
:1024380012000F51800A750FD8A048D0000E000175
:10244800B36F0A0EB26F01010F510001B06FB16B8B
:10245800B0BFB107FAEC20F0090EB027B051030D58
:10246800C10EF324F66EFE0EF420F76E0900F5CFC8
:10247800B8F00900F5CFB9F00A00F5CFBAF0000EB0
:10248800AD6F0A0EAC6F01010F510001AA6FAB6B63
:10249800AABFAB0760EC23F0AA51030DC10EF324C9
:1024A800F66EFE0EF420F76E0900F5CFBBF00900BA
:1024B800F5CFBCF00A00F5CFBDF08DEC19F0B8C02F
:1024C80009F1B9C00AF1BAC00BF112000F51030D9E
:1024D800C10EF324F66EFE0EF420F76E0900F5CF58
:1024E80009F10900F5CF0AF10A00F5CF0BF1120046
:1024F80058EC29F067EC25F088EC29F0A2EC29F0DB
:10250800D7EC27F00C0EF1EC25F00400000E0001CA
:10251800AB6FC80EAA6F66EC28F076EC29F0ACEC2D
:102528001DF0000E01017E6F4DD07E513CEC24F071
:1025380018C17BF119C17CF11AC17DF1000E0001AF
:10254800BB6F960EBC6F430EBD6F7BC1B8F07CC1EC
:10255800B9F07DC1BAF08DEC19F0B8C009F1B9C075
:102568000AF1BAC00BF1000E01010C6FA00E0D6F3D
:10257800400E0E6F96EC1EF009C17FF10AC180F182
:102588000BC181F126D07E513CEC24F018C17BF1BF
:1025980019C17CF11AC17DF17BC1B8F07CC1B9F0D9
:1025A8007DC1BAF0000E0001BB6F960EBC6F430EE2
:1025B800BD6F8DEC19F0B8C082F1B9C083F1BAC013
:1025C80084F107D07E51000AD8B4AFD7020AD8B434
:1025D800DAD701017E2B020E7E65F4D781BA09D0C5
:1025E800000E8C6F000E8B6F000E8A6F000E896FC5
:1025F800D59E80BA0CD07D507E10D8B404D0000E81
:102608007E6E000E03D0000E7E6E010E7D6E8B5125
:102618008C11D8A407D0B190D59E000E8A6F000EF9
:10262800896F02D0B180D58E82BA04D0000E8A6F2D
:10263800000E03D0000E8A6F010E896FFAD081B6A2
:102648000DD0000E0001AB6FFA0EAA6F66EC28F0F1
:1026580081B602D0CE4BCF2B76EC29F081B855D776
:10266800000E0001AB6FFA0EAA6F66EC28F081B875
:1026780003D0CE07D8A0CF0776EC29F046D781B68D
:102688000FD0000E0001AB6FFA0EAA6F66EC28F0AF
:1026980081B604D00A0ECE27000ECF2376EC29F09F
:1026A80081B833D7000E0001AB6FFA0EAA6F66EC43
:1026B80028F081B8E1D7F60ECE27FF0ECF23DCD75E
:1026C80081B60DD0000E0001AB6FFA0EAA6F66EC52
:1026D80028F081B602D0CC4BCD2B76EC29F081B80E
:1026E80014D7000E0001AB6FFA0EAA6F66EC28F043
:1026F80081B8C2D7CC07D8A0CD07BED781B60FD036
:10270800000E0001AB6FFA0EAA6F66EC28F081B6D6
:1027180004D00A0ECC27000ECD2376EC29F081B820
:10272800F4D6000E0001AB6FFA0EAA6F66EC28F023
:1027380081B8A2D7F60ECC27FF0ECD239DD781B640
:102748000DD0000E0001AB6FFA0EAA6F66EC28F0F0
:1027580081B602D0CA4BCB2B76EC29F081B8D5D6FE
:10276800000E0001AB6FFA0EAA6F66EC28F081B874
:1027780083D7CA07D8A0CB077FD781B614D0000E5D
:102788000001AB6FFA0EAA6F66EC28F081B609D08B
:102798000101885106E1050E875DD8B002D0874B4C
:1027A800882B76EC29F081B8B0D6000E0001AB6F0B
:1027B800FA0EAA6F66EC28F081B85ED7010188513D
:1027C80003E1050E875DD8B057D78707D8A08807DB
:1027D80053D781B614D0000E0001AB6FFA0EAA6F62
:1027E80066EC28F081B609D00101865106E10A0E8F
:1027F800855DD8B002D0854B862B76EC29F081B860
:1028080084D6000E0001AB6FFA0EAA6F66EC28F0B2
:1028180081B832D7010185518611D8B42DD7865198
:1028280003E10B0E855DD8B027D78507D8A08607AA
:1028380023D78DC179F18EC17AF17A51000AD8A4D3
:1028480064D67951000AD8B4FAD6010AD8B417D791
:10285800030AD8B435D7010AD8B450D7070AD8B470
:102868006ED7010AD8B489D7030AD8B4B2D74DD6DF
:10287800246E24AED9D0246C2450800A120FD8A01C
:1028880079D0000E0A6E0A0E096E000E046E640EF0
:10289800036E2450016E026A01BE020698EC23F012
:1028A80001C007F002C008F07EEC21F0090E0726EF
:1028B8000750030DE80EF324F66EFE0EF420F76EB3
:1028C8000900F5CF12F00900F5CF13F00A00F5CF93
:1028D80014F0000E0A6E640E096E2450076E086A22
:1028E80007BE08067EEC21F0120E07260750030DDE
:1028F800E80EF324F66EFE0EF420F76E0900F5CF0D
:102908000FF00900F5CF10F00A00F5CF11F0B8EC80
:102918001CF00FC021F010C022F011C023F021C01C
:102928000FF022C010F023C011F0000E046E0A0E42
:10293800036E2450016E026A01BE020698EC23F071
:102948000150030DE80EF324F66EFE0EF420F76E28
:102958000900F5CF12F00900F5CF13F00A00F5CF02
:1029680014F0B8EC1CF00FC01EF010C01FF011C01E
:1029780020F012002450800A750FD8A043D0000E12
:102988000A6E0A0E096E2450076E086A07BE08060A
:102998007EEC21F0090E07260750030DE80EF324FC
:1029A800F66EFE0EF420F76E0900F5CF0FF0090061
:1029B800F5CF10F00A00F5CF11F0000E046E0A0EE4
:1029C800036E2450016E026A01BE020698EC23F0E1
:1029D8000150030DE80EF324F66EFE0EF420F76E98
:1029E8000900F5CF12F00900F5CF13F00A00F5CF72
:1029F80014F0B8EC1CF00FC01EF010C01FF011C08E
:102A080020F012002450030DE80EF324F66EFE0E9B
:102A1800F420F76E0900F5CF1EF00900F5CF1FF07E
:102A28000A00F5CF20F012002450800A120FD8A017
:102A380079D0000E0A6E0A0E096E000E046E640E3E
:102A4800036E2450016E026A01BE020698EC23F060
:102A580001C007F002C008F07EEC21F0090E07263D
:102A68000750030DC10EF324F66EFE0EF420F76E28
:102A78000900F5CF12F00900F5CF13F00A00F5CFE1
:102A880014F0000E0A6E640E096E2450076E086A70
:102A980007BE08067EEC21F0120E07260750030D2C
:102AA800C10EF324F66EFE0EF420F76E0900F5CF82
:102AB8000FF00900F5CF10F00A00F5CF11F0B8ECCF
:102AC8001CF00FC021F010C022F011C023F021C06B
:102AD8000FF022C010F023C011F0000E046E0A0E91
:102AE800036E2450016E026A01BE020698EC23F0C0
:102AF8000150030DC10EF324F66EFE0EF420F76E9E
:102B08000900F5CF12F00900F5CF13F00A00F5CF50
:102B180014F0B8EC1CF00FC01EF010C01FF011C06C
:102B280020F012002450800A750FD8A043D0000E60
:102B38000A6E0A0E096E2450076E086A07BE080658
:102B48007EEC21F0090E07260750030DC10EF32471
:102B5800F66EFE0EF420F76E0900F5CF0FF00900AF
:102B6800F5CF10F00A00F5CF11F0000E046E0A0E32
:102B7800036E2450016E026A01BE020698EC23F02F
:102B88000150030DC10EF324F66EFE0EF420F76E0D
:102B98000900F5CF12F00900F5CF13F00A00F5CFC0
:102BA80014F0B8EC1CF00FC01EF010C01FF011C0DC
:102BB80020F012002450030DC10EF324F66EFE0E11
:102BC800F420F76E0900F5CF1EF00900F5CF1FF0CD
:102BD8000A00F5CF20F01200146F6D0E0101146584
:102BE80084D00A0E0001AE6F640EAA6F0101145161
:102BF8000CEC28F07FEC27F001010C6F0C51030D51
:102C08001B0EF326000EF422E80EF324F66EFE0ED9
:102C1800F420F76E0900F5CFBBF00900F5CFBCF042
:102C28000A00F5CFBDF0640E0001AE6F010114512A
:102C38007FEC27F001010D6F0D51030D360EF326C1
:102C4800000EF422E80EF324F66EFE0EF420F76E62
:102C58000900F5CFB8F00900F5CFB9F00A00F5CFB3
:102C6800BAF08DEC19F0B8C011F1B9C012F1BAC0C0
:102C780013F10A0EAA6F010114510CEC28F001019E
:102C88000C6F0C51030DE80EF324F66EFE0EF420C3
:102C9800F76E0900F5CFBBF00900F5CFBCF00A00CC
:102CA800F5CFBDF011C1B8F012C1B9F013C1BAF037
:102CB8008DEC19F0B8C00EF1B9C00FF1BAC010F11F
:102CC8000EC1B8F00FC1B9F010C1BAF0000EBB6F59
:102CD800000EBC6F3F0EBD6F8DEC19F0B8C009F146
:102CE800B9C00AF1BAC00BF112000A0E146555D02A
:102CF8000A0E0001AA6F010114510CEC28F0010121
:102D08000C6F0C51030DE80EF324F66EFE0EF42042
:102D1800F76E0900F5CFBBF00900F5CFBCF00A004B
:102D2800F5CFBDF00A0E0001AE6F010114517FEC22
:102D380027F001010D6F0D51030D1B0EF326000E38
:102D4800F422E80EF324F66EFE0EF420F76E090066
:102D5800F5CFB8F00900F5CFB9F00A00F5CFBAF011
:102D68008DEC19F0B8C011F1B9C012F1BAC013F165
:102D780011C1B8F012C1B9F013C1BAF0000EBB6F9F
:102D8800000EBC6F3F0EBD6F8DEC19F0B8C009F195
:102D9800B9C00AF1BAC00BF112001451030DE80EC4
:102DA800F324F66EFE0EF420F76E0900F5CFB8F0A6
:102DB8000900F5CFB9F00A00F5CFBAF0000E00010E
:102DC800BB6F000EBC6F3F0EBD6F8DEC19F0B8C025
:102DD80009F1B9C00AF1BAC00BF11200296E6D0EE3
:102DE80029647CD00A0E056E640E016E295051ECE0
:102DF80028F09EEC27F0216E2150030D1B0EF326C0
:102E0800000EF422E80EF324F66EFE0EF420F76EA0
:102E18000900F5CF12F00900F5CF13F00A00F5CF3D
:102E280014F0640E056E29509EEC27F0226E225095
:102E3800030D360EF326000EF422E80EF324F66E88
:102E4800FE0EF420F76E0900F5CF0FF00900F5CF5C
:102E580010F00A00F5CF11F0B8EC1CF00FC026F006
:102E680010C027F011C028F00A0E016E295051EC4D
:102E780028F0216E2150030DE80EF324F66EFE0EA5
:102E8800F420F76E0900F5CF12F00900F5CF13F022
:102E98000A00F5CF14F026C00FF027C010F028C0A4
:102EA80011F0B8EC1CF00FC023F010C024F011C0D2
:102EB80025F023C00FF024C010F025C011F0000E3B
:102EC800126E000E136E3F0E146EB8EC1CF00FC09D
:102ED8001EF010C01FF011C020F012000A0E296465
:102EE8004FD00A0E016E295051EC28F0216E215066
:102EF800030DE80EF324F66EFE0EF420F76E0900BB
:102F0800F5CF12F00900F5CF13F00A00F5CF14F051
:102F18000A0E056E29509EEC27F0226E2250030DF2
:102F28001B0EF326000EF422E80EF324F66EFE0EB6
:102F3800F420F76E0900F5CF0FF00900F5CF10F077
:102F48000A00F5CF11F0B8EC1CF00FC026F010C045
:102F580027F011C028F026C00FF027C010F028C0B5
:102F680011F0000E126E000E136E3F0E146EB8ECC8
:102F78001CF00FC01EF010C01FF011C020F012008E
:102F88002950030DE80EF324F66EFE0EF420F76EBA
:102F98000900F5CF0FF00900F5CF10F00A00F5CFC2
:102FA80011F0000E126E000E136E3F0E146EB8EC88
:102FB8001CF00FC01EF010C01FF011C020F012004E
:102FC80017C11BF101011C6B1D6B16351B3701E383
:102FD8001C811B51206F1AC11BF11C6B1D6B19350D
:102FE8001B3701E31C811B511F6F2051D8B40AD035
:102FF8001F51205DD8B00DD020511F5D1B6F180EDA
:103008001B6507D018C115F119C116F11AC117F1BE
:1030180012001F51D8B40AD020511F5DD8B00DD06E
:103028001F51205D1B6F180E1B6507D015C115F1C8
:1030380016C116F117C117F11200060E1E6F17BF41
:103048001E8F1ABF1E8D168FFF0E1517FF0E16172F
:10305800000E1717198FFF0E1817FF0E1917000EFD
:103068001A171F51205DD8B01BD0D89018371937C0
:103078001A371F0720511F19D8B40DD01E071EC1BB
:103088001BF1070E1B17D8B406D0EFD7D89017330B
:1030980016331533202B1F512019D8B41FD0F6D75B
:1030A80020511F5DD8B01AD0D8901537163717376A
:1030B800200720511F19D8B40DD01E071EC11BF1BF
:1030C800070E1B17D8B406D0EFD7D8901A33193388
:1030D80018331F2B1F512019D8A4F7D71EAF0CD0B7
:1030E800FF0E151BFF0E161BFF0E171B010E1527D3
:1030F800000E1623000E17231EAD0CD0FF0E181B52
:10310800FF0E191BFF0E1A1B010E1827000E19239C
:10311800000E1A23000E1E6F155118271651192379
:1031280017511A231AAF0ED0FF0E181BFF0E191BCA
:10313800FF0E1A1B010E1827000E1923000E1A2362
:10314800010E1E6F18C1AAF019C1ABF01AC1ACF07C
:1031580020C1ADF01EC1AEF04BEC20F0AAC015F1B5
:10316800ABC016F1ACC017F112002CC030F0316AB8
:10317800326A2B34303601E331803050356E2FC03F
:1031880030F0316A326A2E34303601E33180305003
:10319800346E3550D8B40AD03450355CD8B00DD020
:1031A8003550345C306E180E306407D02DC02AF0CC
:1031B8002EC02BF02FC02CF012003450D8B40AD0F7
:1031C8003550345CD8B00DD03450355C306E180EA4
:1031D800306407D02AC02AF02BC02BF02CC02CF06A
:1031E8001200060E336E2CBE338E2FBE338C2B8E00
:1031F800FF0E2A16FF0E2B16000E2C162E8EFF0E13
:103208002D16FF0E2E16000E2F163450355CD8B032
:103218001BD0D8902D362E362F363406355034181C
:10322800D8B40DD0330633C030F0070E3016D8B4FA
:1032380006D0EFD7D8902C322B322A32352A345088
:103248003518D8B41FD0F6D73550345CD8B01AD05A
:10325800D8902A362B362C36350635503418D8B443
:103268000DD0330633C030F0070E3016D8B406D070
:10327800EFD7D8902F322E322D32342A34503518C9
:10328800D8A4F7D733AE0CD0FF0E2A1AFF0E2B1A8C
:10329800FF0E2C1A010E2A26000E2B22000E2C22BD
:1032A80033AC0CD0FF0E2D1AFF0E2E1AFF0E2F1A5C
:1032B800010E2D26000E2E22000E2F22000E336E38
:1032C8002A502D262B502E222C502F222FAE0ED0D6
:1032D800FF0E2D1AFF0E2E1AFF0E2F1A010E2D2685
:1032E800000E2E22000E2F22010E336E2DC001F08B
:1032F8002EC002F02FC003F035C004F033C005F033
:10330800A3EC20F001C02AF002C02BF003C02CF07F
:103318001200BAC000F10101016B026B0001B9355E
:103328000101003701E301810051036F0351D8A463
:1033380008D0000E0001B86F000EB96F000EBA6F0A
:103348001200BDC000F1016B026B0001BC35010128
:10335800003701E301810051086F0851D8A408D053
:10336800000E0001B86F000EB96F000EBA6F1200A0
:1033780008517B0F0327BAC008F10001BD510101B4
:10338800081B800E08170001B98FBC8FFF0EBB17F2
:10339800FF0EBC17000EBD17000E0101046F000ED2
:1033A800056F000E066F070E076F0001B8A10BD05E
:1033B800BB51010104270001BC5101010523000193
:1033C800BD51010106230001D890BA33B933B8338F
:1033D800D890BB37BC37BD370101072FE6D7090E98
:1033E800076F0001B8A10BD0BB51010104270001F0
:1033F800BC51010105230001BD5101010623000153
:10340800D890BA33B933B8330101D89006330533AD
:103418000433072FE6D704C1AAF005C1ABF006C1F3
:10342800ACF003C1ADF008C1AEF04BEC20F0AAC07F
:10343800B8F0ABC0B9F0ACC0BAF0120087C175F1F2
:1034480088C176F11DD0F10E776FFF0E17D0E90E07
:10345800776FFF0E13D0F50E776FFF0E0FD0E50EC6
:10346800776FFF0E0BD0FC0E776FFF0E07D0ED0EB7
:10347800776FFF0E03D0DD0E776FFF0E786F1FD0CA
:103488008DC161F18EC162F101016251000AD8A4B7
:1034980016D06151000AD8B4D6D7010AD8B4D7D704
:1034A800030AD8B4D8D7010AD8B4D9D7070AD8B4E8
:1034B800DAD7010AD8B4DBD7030AD8B4DCD77D50F1
:1034C8007E10D8A434D0040E0001B46F010EBAECFB
:1034D80026F085C1AAF086C1ABF0000E0001AD6FE1
:1034E8000A0EAC6FB4EC28F0AAC063F1ABC064F16B
:1034F800650E0101276F010E286FB40E296FFF0EAC
:103508002A6F77C12BF178C12CF163C12DF164C109
:103518002EF175C12FF176C130F109EC00F0650E7E
:103528000001B86F010EB96FA1EC28F01200040E6B
:103538000001B46F010EBAEC26F0650E0101276F89
:10354800010E286FC50E296FFF0E2A6F77C12BF168
:1035580078C12CF175C12DF176C12EF109EC00F07E
:10356800DED787C16FF088C170F01DD0F10E716E83
:10357800FF0E17D0E90E716EFF0E13D0F50E716EA7
:10358800FF0E0FD0E50E716EFF0E0BD0FC0E716EA4
:10359800FF0E07D0ED0E716EFF0E03D0DD0E716EBB
:1035A800FF0E726E1ED08DC15BF08EC15CF05C5058
:1035B800000AD8A416D05B50000AD8B4D7D7010A9D
:1035C800D8B4D8D7030AD8B4D9D7010AD8B4DAD727
:1035D800070AD8B4DBD7010AD8B4DCD7030AD8B4B1
:1035E800DDD77D507E10D8A42ED0040E0B6E010EB0
:1035F800FDEC26F085C101F086C102F0000E046ED4
:103608000A0E036EDAEC28F001C06DF002C06EF00D
:103618005D0E4B6E4C6AB40E4D6EFF0E4E6E71C051
:103628004FF072C050F06DC051F06EC052F06FC0D4
:1036380053F070C054F060EC08F05D0E0F6E106A25
:1036480024EC29F01200040E0B6E010EFDEC26F09E
:103658005D0E4B6E4C6AC50E4D6EFF0E4E6E71C000
:103668004FF072C050F06FC051F070C052F060EC73
:1036780008F0E3D7ACC0B0F00001B16BB26BAB356A
:10368800B03701E3B181B051B86FB851D8A409D0AF
:10369800000EAA6F000EAB6F000EAC6F000EAD6F80
:1036A8001200AFC0B0F0B16BB26BAE35B03701E30A
:1036B800B181B051B76FB751D8B4EAD7AB8FFF0E0D
:1036C800AA17FF0EAB17000EAC17AE8FFF0EAD1783
:1036D800FF0EAE17000EAF17000EB36F000EB46FDB
:1036E800000EB56F000EB66F7F0EB85FB751980F1A
:1036F800B85F180EB76FD890B337B437B537B63749
:10370800AD51AA5DAE51AB59AF51AC59D8A007D055
:10371800AD51AA5FAE51AB5BAF51AC5BB381D890F2
:10372800AA37AB37AC37B72FE6D7B8AF0DD0B851FB
:10373800800A970FD8A0ACD7D890B633B533B43336
:10374800B333B83FF9D70DD0170EB86507D0A0D757
:10375800D890B337B437B537B637B807B851D8A407
:10376800F7D7B3C0AAF0B4C0ABF0B5C0ACF0B6C0E0
:10377800ADF0120003C007F0086A096A0234073680
:1037880001E3088007500F6E0F50D8A409D0000E2F
:10379800016E000E026E000E036E000E046E120023
:1037A80006C007F0086A096A0534073601E308808D
:1037B80007500E6E0E50D8B4EAD7028EFF0E0116CF
:1037C800FF0E0216000E0316058EFF0E0416FF0EDE
:1037D8000516000E0616000E0A6E000E0B6E000E81
:1037E8000C6E000E0D6E7F0E0F5E0E50980F0F5E62
:1037F800180E0E6ED8900A360B360C360D3604505D
:10380800015C0550025806500358D8A007D0045050
:10381800015E0550025A0650035A0A80D8900136B4
:10382800023603360E2EE6D70FAE0DD00F50800AA3
:10383800970FD8A0ACD7D8900D320C320B320A3281
:103848000F3EF9D70DD0170E0F6407D0A0D7D89028
:103858000A360B360C360D360F060F50D8A4F7D79C
:103868000AC001F00BC002F00CC003F00DC004F058
:1038780012000001AC35AD35B56FB551D8A409D0EB
:10388800000EAA6F000EAB6F000EAC6F000EAD6F8E
:103898001200AF35B035B46FB451D8B4F1D7AC8F8E
:1038A800FF0EAA17FF0EAB17FF0EAC17000EAD17D1
:1038B800AF8FFF0EAD17FF0EAE17FF0EAF17000E3E
:1038C800B017000EB06F000EB16F000EB26F000E91
:1038D800B36F7F0EB55FB451A00FB55F200EB46F04
:1038E800D890B037B137B237B337AD51AA5DAE51C2
:1038F800AB59AF51AC59B051AD59D8A009D0AD5161
:10390800AA5FAE51AB5BAF51AC5BB051AD5BB08160
:10391800D890AA37AB37AC37AD37B42FE1D7B5AFAE
:103928000DD0B551800A9F0FD8A0AAD7D890B3332D
:10393800B233B133B033B53FF9D70DD01F0EB565EB
:1039480007D09ED7D890B037B137B237B337B5075D
:10395800B551D8A4F7D7B0C0AAF0B1C0ABF0B2C087
:10396800ACF0B3C0ADF0120011C015F0166A176ABA
:103978001034153601E316801550186E1850D8A467
:1039880007D0000E0F6E000E106E000E116E1200A2
:1039980014C015F0166A176A1334153601E3168039
:1039A80015501D6E1D50D8A407D0000E0F6E000EC6
:1039B800106E000E116E12001D507B0F182611C0DC
:1039C8001DF014501D1A800E1D16108E138EFF0E3A
:1039D8001216FF0E1316000E1416000E196E000EA6
:1039E8001A6E000E1B6E070E1C6E0FA006D012502A
:1039F800192613501A2214501B22D8901132103253
:103A08000F32D8901236133614361C2EEED7090E04
:103A18001C6E0FA006D01250192613501A221450EB
:103A28001B22D890113210320F32D8901B321A3222
:103A380019321C2EEED719C001F01AC002F01BC0B3
:103A480003F018C004F01DC005F0A3EC20F001C07D
:103A58000FF002C010F003C011F012000334043458
:103A68000C6E0C50D8A409D0000E016E000E026E28
:103A7800000E036E000E046E1200063407340B6E3F
:103A88000B50D8B4F1D7038EFF0E0116FF0E0216A5
:103A9800FF0E0316000E0416068EFF0E0416FF0E08
:103AA8000516FF0E0616000E0716000E076E000E0E
:103AB800086E000E096E000E0A6E7F0E0C5E0B502B
:103AC800A00F0C5E200E0B6ED8900736083609360C
:103AD8000A360450015C0550025806500358075036
:103AE8000458D8A009D00450015E0550025A065067
:103AF800035A0750045A0780D89001360236033615
:103B080004360B2EE1D70CAE0DD00C50800A9F0F57
:103B1800D8A0AAD7D8900A320932083207320C3E08
:103B2800F9D70DD01F0E0C6407D09ED7D890073652
:103B3800083609360A360C060C50D8A4F7D707C041
:103B480001F008C002F009C003F00AC004F0120036
:103B58000001CFBF0CD0CF5104E13C0ECE5DD8A000
:103B680006D0CC4BCD2B000ECF6F000ECE6FCDBF45
:103B78000CD0CD5104E13C0ECC5DD8A006D0CA4B88
:103B8800CB2B000ECD6F000ECC6FCBBF0AD0CB5124
:103B980004E1060ECA5DD8A004D0000ECB6F050E56
:103BA800CA6FCFBF05D0CF5116E1CE05D8B013D01C
:103BB80081B811D0050E7D187E10D8B40CD0060E31
:103BC8007D187E10D8B407D0CC07D8A0CD07000E3A
:103BD800CF6F3B0ECE6FCDBF05D0CD5116E1CC05D2
:103BE800D8B013D081B811D0050E7D187E10D8B486
:103BF8000CD0060E7D187E10D8B407D0CA07D8A0FE
:103C0800CB07000ECD6F3B0ECC6FCBBF05D0CB5191
:103C180013E1CA05D8B0120081B81200050E7D184C
:103C28007E10D8B41200060E7D187E10D8B412008B
:103C3800000ECB6F050ECA6F12000001CFBF0CD06B
:103C4800CF5104E13C0ECE5DD8A006D0CC4BCD2B95
:103C5800000ECF6F000ECE6FCDBF0CD0CD5104E15A
:103C68003C0ECC5DD8A006D0CA4BCB2B000ECD6F36
:103C7800000ECC6FCBBF0AD0CB5104E1060ECA5D53
:103C8800D8A004D0000ECB6F050ECA6FCFBF05D0E9
:103C9800CF5116E1CE05D8B013D081B811D0050E9A
:103CA8007D187E10D8B40CD0060E7D187E10D8B4BE
:103CB80007D0CC07D8A0CD07000ECF6F3B0ECE6F34
:103CC800CDBF05D0CD5116E1CC05D8B013D081B801
:103CD80011D0050E7D187E10D8B40CD0060E7D18B4
:103CE8007E10D8B407D0CA07D8A0CB07000ECD6F76
:103CF8003B0ECC6FCBBF05D0CB5113E1CA05D8B072
:103D0800120081B81200050E7D187E10D8B412007A
:103D1800060E7D187E10D8B41200000ECB6F050E6B
:103D2800CA6F12000BC10FF1106B116B0A350F37F8
:103D380001E310810F51166F1651D8A407D0000E59
:103D4800096F000E0A6F000E0B6F12000EC10FF103
:103D5800106B116B0D350F3701E310810F51176F81
:103D68001751D8A407D0000E096F000E0A6F000E75
:103D78000B6F1200000E136F000E146F000E156FFC
:103D88001751890F165F0BC117F10E51171B800EC3
:103D980017170A8FFF0E0917FF0E0A17000E0B17C9
:103DA8000D8FFF0E0C17FF0E0D17000E0E17180EB5
:103DB800126FD8901337143715370C51095D0D5110
:103DC8000A590E510B59D8A007D00C51095F0D5153
:103DD8000A5B0E510B5B1381D89009370A370B37F2
:103DE800122FE7D713C1AAF014C1ABF015C1ACF07C
:103DF80016C1ADF017C1AEF04BEC20F0AAC009F126
:103E0800ABC00AF1ACC00BF11200A19201018B51B9
:103E18008C11D8A405D0000E8A6F000E896F12008D
:103E28007D507E10D8A403D0B3EC22F059D07FC1C6
:103E38002DF080C12EF081C12FF087C109F088C113
:103E48000AF000EC29F009C02AF00AC02BF00BC0D8
:103E58002CF0B9EC18F02AC036F02BC037F02CC083
:103E680038F082C139F083C13AF084C13BF0EDECFF
:103E780022F0D8B002D0829AD7D782C139F083C154
:103E88003AF084C13BF07FC136F080C137F081C180
:103E980038F05FEC27F036C03CF037C03DF038C052
:103EA8003EF0E2EC1FF03CC04BF03DC04CF04C50F3
:103EB80004E10B0E4B5CD8A004D0000E4C6E0A0E29
:103EC80009D04C5008E1050E4B5CD8B004D0000E68
:103ED8004C6E050E4B6E4BC085F14CC086F1A4D7D5
:103EE80098EC29F0120012C114F10101156B166B40
:103EF8001135143701E3158114511E6F1E51D8A4D2
:103F080009D0000E106F000E116F000E126F000E18
:103F1800136F1200170E146F10C115F111C116F1AD
:103F280012C117F11429186F04D0D890173316331B
:103F38001533182FFAD701011551196F118FFF0E7C
:103F48001017FF0E1117000E121710511A6F11518A
:103F58001B6F12511C6F1D6B8E0E1E5F1EAF0DD096
:103F68001E51800A8F0FD8A0CCD7D8901D331C3390
:103F78001B331A331E3FF9D70DD0170E1E6507D015
:103F8800C0D7D8901A371B371C371D371E071E514C
:103F9800D8A4F7D71951D8B408D01D1F1C1F1B1F50
:103FA8001A6D000E1B231C231D231AC110F11BC1FF
:103FB80011F11CC112F11DC113F112003EC040F0F5
:103FC800416A426A3D34403601E3418040504A6EBE
:103FD8004A50D8A409D0000E3C6E000E3D6E000E6B
:103FE8003E6E000E3F6E1200170E406E3CC041F050
:103FF8003DC042F03EC043F04028446E04D0D89003
:10400800433242324132442EFAD74150456E3D8EFA
:10401800FF0E3C16FF0E3D16000E3E163C50466E37
:104028003D50476E3E50486E496A8E0E4A5E4AAE13
:104038000DD04A50800A8F0FD8A0CDD7D8904932DA
:104048004832473246324A3EF9D70DD0170E4A64F5
:1040580007D0C1D7D89046364736483649364A063B
:104068004A50D8A4F7D74550D8B408D0491E481E9E
:10407800471E466C000E47224822492246C03CF0A3
:1040880047C03DF048C03EF049C03FF01200000173
:10409800AD51D8B405D0AA51AB11AC11D8A40CD0ED
:1040A800000EAA6F000EAB6F000EAC6F1200AD2BA6
:1040B800D890AC33AB33AA33000EAA15AF6F000EFD
:1040C800AB15B06FFE0EAC15B16FAF51B011B11199
:1040D800D8B40CD0ECD7AD2B010EAA27000EAB2319
:1040E800000EAC23D890AC33AB33AA33000EAA151C
:1040F800AF6F000EAB15B06FFF0EAC15B16FAF51BF
:10410800B011B111D8B406D0E6D7AD07D890AA3708
:10411800AB37AC37ABBF03D0020EAD61F6D7ADA15C
:10412800AB9FD890AD33AD51AC13AE51D8A4AC8F82
:10413800AAC0AAF0ABC0ABF0ACC0ACF012000450FF
:10414800D8B405D0015002100310D8A40CD0000E2A
:10415800016E000E026E000E036E1200042AD89043
:10416800033202320132000E0114066E000E0214F0
:10417800076EFE0E0314086E065007100810D8B418
:104188000CD0ECD7042A010E0126000E0222000EE4
:104198000322D890033202320132000E0114066E57
:1041A800000E0214076EFF0E0314086E0650071067
:1041B8000810D8B406D0E6D70406D89001360236DF
:1041C800033602BE03D0020E0460F6D704A0029E96
:1041D800D8900432045003120550D8A4038E01C0AD
:1041E80001F002C002F003C003F01200000EB56F28
:1041F800B3AF06D0B26DB31FD8B0B32B010EB56FF5
:10420800B1AF06D0B06DB11FD8B0B12B010EB51B40
:10421800000EB76F000EB66FB251B311D8B41CD0F0
:10422800010EB46F04D0D890B237B337B42BB3AF04
:10423800FAD7D890B637B737B251B05DB351B15944
:10424800D8A005D0B251B05FB351B15BB681D89058
:10425800B333B233B42FEDD7B551D8B404D0B66D5B
:10426800B71FD8B0B72BB6C0B0F0B7C0B1F01200C6
:10427800000E0001B26F000EB36F000EB46F000E97
:10428800B56FAE51AF11B011B111D8B42AD0010E2B
:10429800B66F06D0D890AE37AF37B037B137B62B38
:1042A800B1AFF8D7D890B237B337B437B537AE51C6
:1042B800AA5DAF51AB59B051AC59B151AD59D8A065
:1042C80009D0AE51AA5FAF51AB5BB051AC5BB151F5
:1042D800AD5BB281D890B133B033AF33AE33B62FC4
:1042E800E1D7B2C0AAF0B3C0ABF0B4C0ACF0B5C06F
:1042F800ADF01200000E0C6E0AAE06D0096C0A1E54
:10430800D8B00A2A010E0C6E08AE06D0076C081E3B
:10431800D8B0082A010E0C1A000E0E6E000E0D6E93
:1043280009500A10D8B41CD0010E0B6E04D0D890D6
:1043380009360A360B2A0AAEFAD7D8900D360E3649
:104348000950075C0A500858D8A005D00950075EE4
:104358000A50085A0D80D8900A3209320B2EEDD730
:104368000C50D8B404D00D6C0E1ED8B00E2A0DC057
:1043780007F00EC008F01200000E096E000E0A6E5B
:10438800000E0B6E000E0C6E05500610071008107C
:10439800D8B42AD0010E0D6E06D0D8900536063650
:1043A800073608360D2A08AEF8D7D89009360A36E7
:1043B8000B360C360550015C06500258075003585E
:1043C80008500458D8A009D00550015E0650025A7A
:1043D8000750035A0850045A0980D8900832073207
:1043E800063205320D2EE1D709C001F00AC002F0ED
:1043F8000BC003F00CC004F01200F2940001CA5183
:10440800CB11D8A418D0CC51CD11D8A414D0CE51EA
:10441800CF11D8A410D0000ED16F010ED06F000EAE
:1044280001018C6F000E8B6F000E8A6F000E896F72
:104438007FEC29F01200CE07D8A0CF07CFAF07D066
:10444800CC07D8A0CD07000ECF6F3B0ECE6FCDAFF7
:1044580007D0CA07D8A0CB07000ECD6F3B0ECC6F94
:10446800CBAF04D0000ECB6F000ECA6F7FEC29F0E3
:104478009DEC29F01200ACAF0FD0000EB06F000E0B
:10448800B16F800EB26FAA51B05DAA6FAB51B1592E
:10449800AB6FAC51B259AC6FAFAF0FD0000EB06F6D
:1044A800000EB16F800EB26FAD51B05DAD6FAE5101
:1044B800B159AE6FAF51B259AF6F000EAA1B000EC3
:1044C800AB1B800EAC1B000EAD1B000EAE1B800E8E
:1044D800AF1BAD51AA5DAE51AB59AF51AC59D8B075
:1044E80002D0D8901200D88012000600E1CF73F0F5
:1044F800E2CF74F0D9CF75F0DACF76F0F3CF77F05A
:10450800F4CF78F0F6CF79F0F7CF7AF0F8CF7BF0E8
:10451800F5CF7CF0F2B401EC22F0A1B209EC1FF067
:10452800F2B223EC28F0F0B01EEC27F0F0B27AECEF
:1045380028F07CC0F5FF7BC0F8FF7AC0F7FF79C090
:10454800F6FF78C0F4FF77C0F3FF76C0DAFF75C0D6
:10455800D9FF74C0E2FF73C0E1FF7F921100000130
:10456800C851C911D8B40FD0C8510101855D0001E7
:10457800C95101018659D8A006D0828A000E8A6FD7
:10458800010E896F22D00001C8510101855D00012B
:10459800C95101018659D8B018D00001C95115E197
:1045A8000B0EC85DD8B011D0829A000E01018A6F37
:1045B800000E896F0A0E0001C819C911D8A405D0C8
:1045C800000EC96F000EC86F12000001C84BC92B3E
:1045D800120038AE0FD0000E3C6E000E3D6E800EFD
:1045E8003E6E36503C5C366E37503D58376E38500C
:1045F8003E58386E3BAE0FD0000E3C6E000E3D6E3E
:10460800800E3E6E39503C5C396E3A503D583A6ED9
:104618003B503E583B6E000E361A000E371A800E7D
:10462800381A000E391A000E3A1A800E3B1A395001
:10463800365C3A5037583B503858D8B002D0D890EA
:104648001200D88012000001BB51BC11BD11BE116F
:10465800D8B429D0010E0101006F07D0D890BB371C
:10466800BC37BD37BE370101002B0001BEAFF6D7FE
:104678000001BB51B75DBC51B859BD51B959BE51C4
:10468800BA59D8A008D0BB51B75FBC51B85BBD516F
:10469800B95BBE51BA5BD890BE33BD33BC33BB33B4
:1046A8000101002FE5D7B7C0B7F0B8C0B8F0B9C05E
:1046B800B9F0BAC0BAF01200000EAF6FABAF06D0B7
:1046C800AA6DAB1FD8B0AB2B010EAF6FADAF04D046
:1046D800AC6DAD1FD8B0AD2BAC51AD11D8B418D05E
:1046E800010EAE6F04D0D890AC37AD37AE2BADAF5E
:1046F800FAD7AC51AA5DAD51AB59D8A004D0AC5192
:10470800AA5FAD51AB5BD890AD33AC33AE2FF1D7C8
:10471800AF51D8B404D0AA6DAB1FD8B0AB2BAAC088
:10472800AAF0ABC0ABF01200000E066E02AE06D0C7
:10473800016C021ED8B0022A010E066E04AE04D027
:10474800036C041ED8B0042A03500410D8B418D03F
:10475800010E056E04D0D89003360436052A04AE3F
:10476800FAD70350015C04500258D8A004D0035073
:10477800015E0450025AD89004320332052EF1D754
:104788000650D8B404D0016C021ED8B0022A01C069
:1047980001F002C002F012007FC161F180C162F134
:1047A80081C163F1010189518A11D8A404D0E10EB5
:1047B800646FFF0E03D0F90E646FFF0E656F030E72
:1047C8000001B46F010EBAEC26F0660E0101276FE6
:1047D800010E286F800E296FFF0E2A6F61C12BF121
:1047E80062C12CF163C12DF164C12EF165C12FF1B5
:1047F80009EC00F0660E0001B86F010EB96FA1EC6C
:1048080028F0120082C161F183C162F184C163F1B1
:1048180001018B518C11D8A404D0E10E646FFF0EF6
:1048280003D0F90E646FFF0E656F020E0001B46FBE
:10483800010EBAEC26F0660E0101276F010E286FF3
:104848006E0E296FFF0E2A6F61C12BF162C12CF128
:1048580063C12DF164C12EF165C12FF109EC00F09F
:10486800660E0001B86F010EB96FA1EC28F01200B6
:104878001E6F01011E513FEC27F0AAC01FF1ABC00B
:1048880020F11FC1AAF020C1ABF0000EAD6F050EDC
:10489800AC6FB4EC28F0AAC0B2F0ABC0B3F0BBEC7C
:1048A80027F0B2C009F1B3C00AF1B4C00BF1C00ED1
:1048B80001010C6F7F0E0D6F440E0E6F96EC1EF00B
:1048C80009C11BF10AC11CF10BC11DF11BC118F173
:1048D8001CC119F11DC11AF1120012501310141045
:1048E8001510D8B424D0010E166E06D0D890123602
:1048F800133614361536162A15AEF8D712500E5C34
:1049080013500F581450105815501158D8A008D0EB
:1049180012500E5E13500F5A1450105A1550115A57
:10492800D8901532143213321232162EE7D70EC031
:104938000EF00FC00FF010C010F011C011F01200EF
:10494800ACEC1DF0CEC061F1CFC062F1CCC063F118
:10495800CDC064F1CAC065F1CBC066F1010EB46F79
:10496800010EBAEC26F0670E0101276F010E286FC1
:10497800570E296FFF0E2A6F65C12BF166C12CF106
:1049880063C12DF164C12EF161C12FF162C130F113
:1049980009EC00F0670E0001B86F010EB96FA1ECC9
:1049A80028F012007FC16BF080C16CF081C16DF0FE
:1049B800010189518A11D8A404D0E10E6E6EFF0E50
:1049C80003D0F90E6E6EFF0E6F6E030E0B6E010EA6
:1049D800FDEC26F05B0E4B6E4C6A800E4D6EFF0EA2
:1049E8004E6E6BC04FF06CC050F06DC051F06EC091
:1049F80052F06FC053F060EC08F05B0E0F6E106A57
:104A080024EC29F0120082C16BF083C16CF084C1E0
:104A18006DF001018B518C11D8A404D0E10E6E6E9B
:104A2800FF0E03D0F90E6E6EFF0E6F6E020E0B6E48
:104A3800010EFDEC26F05B0E4B6E4C6A6E0E4D6E51
:104A4800FF0E4E6E6BC04FF06CC050F06DC051F051
:104A58006EC052F06FC053F060EC08F05B0E0F6E42
:104A6800106A24EC29F012008E0E0001BA6F06D0ED
:104A7800D890B533B433B333B233BA2B000EB21572
:104A8800B66F000EB315B76F000EB415B86FFF0EF2
:104A9800B515B96FB651B711B811B911D8A4E8D77F
:104AA800B2C0AAF0B3C0ABF0B4C0ACF0BAC0ADF0BD
:104AB800000EAE6F4BEC20F0AAC0B2F0ABC0B3F062
:104AC800ACC0B4F0120084948492000E0001AB6F65
:104AD800190EAA6F66EC28F0010EB46F030EC7EC2E
:104AE80028F0000E0001AB6F060EAA6F66EC28F0E6
:104AF800B42B030EB465F2D7020EC7EC28F0000EF3
:104B08000001B46FB451D20FD96EDA6ADF50B26FB8
:104B1800000E49EC26F00001B42B030EB465F2D761
:104B2800120021EC1EF0CEC06BF0CFC06CF0CCC0F0
:104B38006DF0CDC06EF0CAC06FF0CBC070F0010E42
:104B48000B6E010EFDEC26F05B0E4B6E4C6A570E99
:104B58004D6EFF0E4E6E6FC04FF070C050F06DC0BE
:104B680051F06EC052F06BC053F06CC054F060EC62
:104B780008F05B0E0F6E106A24EC29F012008E0EFE
:104B8800116E06D0D8900C320B320A320932112A33
:104B9800000E09140D6E000E0A140E6E000E0B1492
:104BA8000F6EFF0E0C14106E0D500E100F1010101B
:104BB800D8A4E8D709C001F00AC002F00BC003F07E
:104BC80011C004F0000E056EA3EC20F001C009F03E
:104BD80002C00AF003C00BF01200B76F1FD0010E1D
:104BE800B26F000E49EC26F0000E0001AB6F020E0A
:104BF800AA6F66EC28F01200020EB46F010EBAEC30
:104C080026F01200100EB26F000E49EC26F01200CA
:104C1800B7C0B2F0010E49EC26F012000001B751FE
:104C2800080AD8B4EFD7020AD8B4E6D7060AD8B427
:104C3800D6D7EED70E6E1ED0010E096E000E96EC7A
:104C480026F0000E026E020E016EEDEC28F0120046
:104C5800020E0B6E010EFDEC26F01200100E096E0E
:104C6800000E96EC26F012000EC009F0010E96EC2C
:104C780026F012000E50080AD8B4F0D7020AD8B4A9
:104C8800E7D7060AD8B4D8D7EFD70001B36F000129
:104C9800B3B102D0849401D08484010EF2EC27F0E1
:104CA800010EF2EC27F08492B2390F0BC7EC28F012
:104CB8000001B2510F0BC7EC28F00001B351D8B472
:104CC80005D0320E0400E82EFDD71200000EAB6F9F
:104CD800020EAA6F66EC28F012004C0EF66E530E08
:104CE800F76E000EF86E00EED2F010EE04F0090038
:104CF800F5CFEEFFE550E150FAE101EE7FF0100E3E
:104D0800EE6AE806FDE100EEBFF0130EEE6AE80673
:104D1800FDE17E6A7D6A7F907F92000EF86E000149
:104D28007CEF12F00A6E0AB002D0849401D0848419
:104D3800010E3AEC28F0010E3AEC28F0849209387A
:104D48000F0B47EC29F009500F0B47EC29F00A50DC
:104D5800D8B405D0320E0400E82EFDD71200000E9C
:104D6800026E020E016EEDEC28F01200B56F09D04C
:104D7800800E05D0C00E03D0900E01D0D00EB66FB5
:104D88000ED00001B451010AD8B4F2D7030AD8B43E
:104D9800F1D7010AD8B4F0D7070AD8B4EFD7B505C8
:104DA800B627B6518009B26F000E49EC26F0120002
:104DB8000101245125112611D8B406D0000E241B58
:104DC800000E251B800E261B21C115F122C116F1EC
:104DD80023C117F124C118F125C119F126C11AF10F
:104DE800E4EC17F015C121F116C122F117C123F126
:104DF80012000C6E09D0800E05D0C00E03D0900EA4
:104E080001D0D00E0D6E0DD00B50010AD8B4F3D7D7
:104E1800030AD8B4F2D7010AD8B4F1D7070AD8B42C
:104E2800F0D70C040D260D508009096E000E96EC83
:104E380026F01200F090000E026E140E016EEDECDA
:104E480028F081B212000001CA51CB11D8A408D0B1
:104E5800CC51CD11D8A404D0CE51CF11D8B4120062
:104E6800000E01018C6F010E8B6F000E8A6F010E10
:104E7800896FD58E12000001B06FB0C0ACF0000190
:104E8800AC47AC47C250AC19C30BAC19C26EC28256
:104E9800C2B2FED7C350C4CFACF00001AD6BACC0FA
:104EA800ADF0AC6BAC11AE6FAD51AF6FAEC0AAF048
:104EB800AFC0ABF0120039503A103B10D8B406D04E
:104EC800000E391A000E3A1A800E3B1A36C02AF024
:104ED80037C02BF038C02CF039C02DF03AC02EF076
:104EE8003BC02FF0B9EC18F02AC036F02BC037F0D1
:104EF8002CC038F012000001AF6F000E0001B16F36
:104F0800AE51D8B415D0010EB06F03D0D890AE37DB
:104F1800B02BAEAFFBD7D890B137AE51AF5DD8A0AC
:104F280003D0AE51AF5FB181D890AE33B02FF3D775
:104F3800B1511200066E000E086E0550D8B415D097
:104F4800010E076E03D0D8900536072A05AEFBD7A9
:104F5800D89008360550065CD8A003D00550065EE8
:104F68000880D8900532072EF3D708501200000E9B
:104F7800B56FB3AF06D0B26DB31FD8B0B32B010E67
:104F8800B56FB2C0AAF0B3C0ABF0AC6B8E0EAD6F0C
:104F9800B5C0AEF04BEC20F0AAC0B2F0ABC0B3F095
:104FA800ACC0B4F01200030ED56E080EB16E8EECD4
:104FB80029F093EC29F0F00EF26E000EF16E180E47
:104FC800F06E040E9D6E000E9E6E000E9F6E020E19
:104FD800A06E000EA16E000EA26E12000001AD6F51
:104FE800000E0001AF6F000EAE6F04D00400000188
:104FF800AE4BAF2BAD51AA6FAB6BAE51AA5DAB51A7
:10500800800AAC6FAF51800AAC59D8A01200EED715
:105018000001AB6F080E0001AC6F000EAD6FD890A9
:10502800AB35AD35AD6FD890AB37AA51AD5DD8A0D3
:1050380002D0AA51AD5FAC2FF2D7AD511200F29257
:10504800000E026E280E016EEDEC28F081B0120001
:10505800060E01018D198E11D8A405D0000E8E6F91
:10506800000E8D6F12008D4B8E2B1200046E000EF9
:10507800066E000E056E03D00400054A062A045089
:10508800016E026A0550015C0250800A036E0650E8
:10509800800A0358D8A01200EFD7026E080E036EDC
:1050A800000E046ED89002340434046ED890023690
:1050B8000150045CD8A002D00150045E032EF2D740
:1050C80004501200000EAD6F000EAC6F08D0C80E71
:1050D80004000400E82EFCD70001AC4BAD2BAC510A
:1050E800AA5DAD51AB59D8A01200F1D7F092000ECD
:1050F800026E140E016EEDEC28F081B41200000E61
:1051080001018C6F000E8B6F000E8A6F000E896F85
:10511800D59E12000001AA51AB11AC11D8B406D02B
:10512800000EAA1B000EAB1B800EAC1BAAC0AAF077
:10513800ABC0ABF0ACC0ACF012000AD0B8C0D9FF1D
:10514800B9C0DAFFDF50F1EC25F00001B84BB92BFC
:10515800B8C0D9FFB9C0DAFFDF50D8B41200EED713
:10516800AA51AC03F3CFAEF0F4CFAFF0AA51AD0320
:10517800F350AF27AB51AC03F350AF27AEC0AAF042
:10518800AFC0ABF012000001B16FB1C0B0F00001C8
:10519800B03B8350B0190F0BB019836E010EF2ECBF
:1051A80027F08482040000F0849212000150030268
:1051B800F3CF05F0F4CF06F001500402F3500626B1
:1051C80002500302F350062605C001F006C002F0A3
:1051D8001200000E046E000E036E07D0C80E040005
:1051E8000400E82EFCD7034A042A0350015C04504B
:1051F8000258D8A01200F2D709C001F00AC002F084
:10520800036A8E0E046E000E056EA3EC20F001C03A
:1052180009F002C00AF003C00BF01200015002109E
:105228000310D8B406D0000E011A000E021A800E20
:10523800031A01C001F002C002F003C003F012001B
:1052480009D00FC0D9FF10C0DAFFDF501EEC26F0DE
:105258000F4A102A0FC0D9FF10C0DAFFDF50D8B4A8
:105268001200EFD70001AC6F000E0001AB6F3A0ED1
:10527800AC6105D02F0EAC6502D0010EAB6FABC090
:10528800AAF0AA311200086E08C007F0073A835046
:1052980007180F0B0718836E010E3AEC28F084826A
:1052A800040000F084921200000EC26E0C0EC16E53
:1052B8003F0E936E000E946E250E926E000E956E44
:1052C800000E966E1200036E000E026E3A0E036018
:1052D80005D02F0E036402D0010E026E02C001F049
:1052E80001301200A4EC24F006EC24F0D0EC23F0FA
:1052F80022EC1AF0120095EC25F007EC25F0D6EC1C
:1053080024F0B5EC1AF01200000EC26EC280890EAD
:10531800C06E1200630EB36EC00EB26E12000B0E9A
:10532800D76EDC0ED66E1200630EB36EC00EB26E70
:1053380012000B0ED76EDC0ED66E1200CB680C0E68
:08534800BD6E1200280C0106E5
:10FE94000001000000080000004000000000020013
:10FEA400000010000000800000000004000000209A
:10FEB4000000000001000000080000004000803F36
:10FEC40000204100C842007A44401C4650C34724E5
:10FED400744997184BBCBE4C6B6E4E03155079ADEC
:10FEE40060F3497100803FCDCC3DD7233C12833A67
:10FEF400B7D138C62737388635C0D633CC2B3270C5
:10FF04008930E7DB2EE53C1E42A20D010000001003
:10FF140000000000010000001000000000010000CB
:10FF24000010000000000100000010010000000AA1
:10FF340000000064000000E803000010270000A097
:10FF440086010040420F008096980000E1F505000C
:10FF5400CA9A3B54696D653A20253032643A25309B
:10FF640032643A2530326420200043543A25303339
:10FF74002E31664320434B3A2533730053503A25C0
:10FF840030332E3166432048543A253373003031E0
:10FF940032333435363738394142434445460030EC
:10FFA400313233343536373839616263646566001B
:10FFB4004D443A257320503A25642020483A25645C
:10FFC400004D443A257320503A41757420483A252F
:10FFD4006400286E756C6C2900485425004F464611
:10FFE4000031304D0031305300485953005365639C
:0CFFF400004D696E004F4E0048520000A6
:020000040020DA
:08000000FFFFFFFFFFFFFFFF00
:020000040030CA
:0E000000FF011F1FFF8385FF0FC00FE00F40A1
:00000001FF
