:0400000007EF00F016
:100008007D8226ED1CF0E0EF1FF0040E156F010E47
:10001800166FA9EF05F0250E2C19D8B40AD000C127
:10002800D9FF01C1DAFF2CC1DFFF004B012BA9EF7B
:1000380005F0000E296F000E286F000E246F000EC9
:10004800236F03D02385024B032B02C1F6FF03C1A4
:10005800F7FF0800F550300AD8B4F4D702C1F6FF0C
:1000680003C1F7FF0800F5507AEC22F0D8A032D08F
:10007800000E0101296F000E286F28C1A0F029C1C8
:10008800A1F0000E0001A36F0A0EA26FE4EC21F0AC
:10009800A0C028F1A1C029F102C1F6FF03C1F7FFF2
:1000A8000800F5CF0AF1D00E01010A250B6F0C6B81
:1000B800FF0E0C230B5128270C512923024B032B2D
:1000C80002C1F6FF03C1F7FF0800F5507AEC22F0F1
:1000D800D8B0D3D702C1F6FF03C1F7FF0800F55027
:1000E8002E0AD8A436D00101248D024B032B000E12
:1000F8002B6F000E2A6F22D02AC1A0F02BC1A1F0CD
:10010800000EA36F0A0EA26FE4EC21F0A0C02AF142
:10011800A1C02BF102C1F6FF03C1F7FF0800F5CF1C
:100128000AF1D00E01010A250B6F0C6BFF0E0C2390
:100138000B512A270C512B23024B032B02C1F6FF2C
:1001480003C1F7FF0800F5507AEC22F0D8A099D047
:10015800D3D7000E01012B6F000E2A6F248991D08E
:100168002485ACD015C1D9FF16C1DAFFDECF13F153
:10017800DDCF14F1020E1527000E162313511411AA
:10018800D8A404D0EB0E136FFF0E146F000E186F77
:10019800000E176F03D00101174B182B17511325A9
:1001A8000A6F185114210B6F0AC1F6FF0BC1F7FF34
:1001B800000EF86E0F0EF76403D00800F55005D056
:1001C800F6CFE9FFF7CFEAFFEF500009D8A4E3D74D
:1001D80001012A512B11D8B40ED017512A5D2B5189
:1001E800800A0A6F1851800A0A59D8B004D02AC167
:1001F80017F12BC118F12851175D29511859D8B09A
:1002080005D01751285F1851295B0DD0000E296FB2
:10021800000E286F08D000C1D9FF01C1DAFF200EF7
:10022800DF6E004B012B2807D8A029072829F3E106
:100238002929D8B41CD0EFD713C1F6FF14C1F7FF92
:10024800000EF86E00C1D9FF01C1DAFF0F0EF76486
:1002580003D00800F55005D0F6CFE9FFF7CFEAFF45
:10026800EF50DF6E0101134B142B004B012B1707C6
:10027800D8A018071729E0E11829D8B4A9EF05F084
:10028800DBD702C1F6FF03C1F7FF0101024B032BC5
:100298000800F5CF2CF12C51000AD8B4B6EF05F0C0
:1002A800640AD8B40BD0020AD8B45AD70F0AD8B403
:1002B80005D01A0AD8B456D7A9EF05F0070E2415A9
:1002C800D8B418D324A904D0000E2B6F060E2A6FB9
:1002D80015C1D9FF16C1DAFFDECF25F1DECF26F131
:1002E800DDCF27F1030E1527000E162327AF11D0F7
:1002F80025C1A0F026C1A1F027C1A2F0F7EC21F09A
:10030800A0C025F1A1C026F1A2C027F1030E01016A
:100318002313000E226F000E216F2551261127117D
:10032800D8B487D0820E0A6FFF0E0B6F25C10CF16F
:1003380026C10DF127C10EF128C10FF1100E05D00D
:10034800D8900F330E330D330C33E82EF9D70C51F8
:100358000A25216F000E0B21226F2107D8A0220742
:1003680021C1A0F022C1A1F0000E0001A36F030E6D
:10037800A26FE4EC21F0A0C021F1A1C022F121C1BB
:10038800A6F022C1A7F0000EA96F0A0EA86FDEEC36
:100398001AF0A6C021F1A7C022F1010122AF03D0B3
:1003A8002107D8A022072151000852EC0BF0BDC04C
:1003B80019F1BEC01AF1BFC01BF119C1AEF01AC1C4
:1003C800AFF01BC1B0F025C1B1F026C1B2F027C112
:1003D800B3F0FEEC15F0AEC019F1AFC01AF1B0C021
:1003E8001BF119C1A0F01AC1A1F01BC1A2F0000EA7
:1003F800A36F800EA46F3F0EA56F62EC1CF0D8B0FF
:1004080005D001012107D8A0220713D019C1A0F0F7
:100418001AC1A1F01BC1A2F0000EA36F200EA46F99
:10042800410EA56F62EC1CF0D8A003D00101214B4E
:10043800222B01012BBF06D02B511BE10D0E2A5D8B
:10044800D8B017D025C1C9F026C1CAF027C1CBF052
:100458002A51F7EC10F0BDC0CCF0BEC0CDF0BFC043
:10046800CEF0DDEC12F0C9C025F1CAC026F1CBC030
:1004780027F1010122BF06D0225120E10A0E215D99
:10048800D8B01CD0255126112711D8B457D025C172
:10049800C4F026C1C5F027C1C6F0DFEC17F0C4517F
:1004A800C511C611C711D8A449D0010122BF46D031
:1004B800225104E1020E215DD8A040D019C1A0F05C
:1004C8001AC1A1F01BC1A2F0700E0001A36F890E22
:1004D800A46F400EA56F62EC1CF0D8B003D00101E8
:1004E800F70E02D00101F80E2127FF0E2223215119
:1004F80052EC0BF0BDC019F1BEC01AF1BFC01BF120
:1005080025C1A0F026C1A1F027C1A2F019C1A3F00E
:100518001AC1A4F01BC1A5F085EC14F0A0C01DF110
:10052800A1C01EF1A2C01FF1A3C020F1000E01015D
:10053800256F000E266F000E276F33D025C1C4F03B
:1005480026C1C5F027C1C6F0DFEC17F0C4C01DF105
:10055800C5C01EF1C6C01FF1C7C020F125C1D5F026
:1005680026C1D6F027C1D7F01DC1A8F01EC1A9F039
:100578001FC1AAF020C1ABF015EC1EF0A8C0D8F03E
:10058800A9C0D9F0AAC0DAF022EC20F0D5C025F134
:10059800D6C026F1D7C027F1000E0101226F000E48
:1005A800216F010E2C6F2C51040DE90EF324F66E09
:1005B800FE0EF420F76E0900F5501D5D0900F55098
:1005C8001E590900F5501F590900F5502059D8A0A7
:1005D80005D02C2B0A0E2C19D8A4E5D72C512A2586
:1005E8000A6F000E2B210B6F21510A2722510B2372
:1005F8000A51285F0B51295B2A512B11D8B403D01B
:100608002807D8A0290723C10AF1030E0A17D8B46E
:1006180003D02807D8A0290723A52DD023C10AF184
:10062800030E0A17D8B414D000C1D9FF01C1DAFFEC
:100638002D0EDF6E004B012B0BD000C1D9FF01C17D
:10064800DAFF300EDF6E004B012B2807D8A02907F0
:1006580029BF6FD02951F1E12805D8A06AD0EDD77C
:1006680000C1D9FF01C1DAFF200EDF6E004B012B5C
:100678002807D8A0290729BF05D02951F1E1280565
:10068800D8B0EED723C10AF1030E0A17D8B451D057
:1006980000C1D9FF01C1DAFF2D0EDF6E004B012B1F
:1006A80048D01DC1A0F01EC1A1F01FC1A2F020C1F9
:1006B800A3F02C51040DE90EF324F66EFE0EF4207F
:1006C800F76E0900F5CFA4F00900F5CFA5F00900F1
:1006D800F5CFA6F00A00F5CFA7F020EC1BF0A0C0DC
:1006E80019F1A1C01AF1A2C01BF1A3C01CF119C1D4
:1006F800ADF01AC1AEF01BC1AFF01CC1B0F00A0ECC
:10070800B16F000EB26F000EB36F000EB46F7BECCA
:100718001DF0ADC019F1AEC01AF1AFC01BF1B0C0E9
:100728001CF101011951300F00C1D9FF01C1DAFFD5
:10073800B4D72C072C29D8B40CD0B3D700C1D9FF13
:1007480001C1DAFF300EDF6E004B012B2107D8A064
:10075800220722BF05D02251F1E12105D8B0EED7FA
:100768002BBF09D02B5104E1090E2A5DD8A003D074
:10077800080E2C6F02D02AC12CF12C512A5F000ED2
:100788002B5B2C51D8B408D000C1D9FF01C1DAFFC6
:100798002E0EDF6E004B012B2C5152EC0BF0BDC01E
:1007A80010F1BEC011F1BFC012F125C1B1F026C1D0
:1007B800B2F027C1B3F010C1AEF011C1AFF012C151
:1007C800B0F0FEEC15F0AEC0C4F0AFC0C5F0B0C0DC
:1007D800C6F0DFEC17F0C4C01DF1C5C01EF1C6C0DD
:1007E8001FF1C7C020F170D01DC1A0F01EC1A1F03B
:1007F8001FC1A2F020C1A3F02C51040DE90EF3246F
:10080800F66EFE0EF420F76E0900F5CFA4F009008D
:10081800F5CFA5F00900F5CFA6F00A00F5CFA7F0AF
:1008280020EC1BF0A0C019F1A1C01AF1A2C01BF165
:10083800A3C01CF119C1ADF01AC1AEF01BC1AFF0D5
:100848001CC1B0F00A0EB16F000EB26F000EB36F8C
:10085800000EB46F7BEC1DF0ADC019F1AEC01AF1FB
:10086800AFC01BF1B0C01CF101011951300F00C11C
:10087800D9FF01C1DAFFDF6E004B012B1DC1ADF0BE
:100888001EC1AEF01FC1AFF020C1B0F02C51040D55
:10089800E90EF324F66EFE0EF420F76E0900F5CF8C
:1008A800B1F00900F5CFB2F00900F5CFB3F00A00B6
:1008B800F5CFB4F07BEC1DF0ADC01DF1AEC01EF15C
:1008C800AFC01FF1B0C020F101012C072C29D8B40A
:1008D8000CD08AD700C1D9FF01C1DAFF300EDF6E14
:1008E800004B012B2A07D8A02B072A512B11D8B46B
:1008F8002CD1F0D715C1D9FF16C1DAFFDECF1DF113
:10090800DDCF1EF1000E1EBFFF0E1F6F206F020EFF
:100918001527000E162320AF0AD0030E2313201F1D
:100928001F1F1E1F1D6D000E1E231F2320232A516B
:100938002B11D8A408D01D511E111F112011D8A4A5
:1009480002D02A4B2B2B010E2C6F2C51040DE90ED3
:10095800F324F66EFE0EF420F76E0900F5501D5DC7
:100968000900F5501E590900F5501F590900F550A6
:100978002059D8A005D02C2B0A0E2C19D8A4E5D7BD
:100988002C510A6F0B6B2A510A5D0B51800A0C6FB0
:100998002B51800A0C59D8B003D02AC12CF110D0A1
:1009A8002C510A6F0B6B0A512A5D2B51800A0C6F70
:1009B8000B51800A0C59D8B003D02CC12AF12B6BEB
:1009C80028512911D8B409D023C10AF1030E0A17F6
:1009D800D8B403D02807D8A0290724AD13D02851AC
:1009E8002A5D2B51800A0A6F2951800A0A59D8B00A
:1009F80005D02A51285F2B51295B04D0000E296F9E
:100A0800000E286F2C510A6F0B6B28510A5D0B5191
:100A1800800A0C6F2951800A0C59D8B005D02C5186
:100A2800285F000E295B04D0000E296F000E286F86
:100A380023A51ED023C10AF1030E0A17D8B408D083
:100A480000C1D9FF01C1DAFF2D0EDF6E004B012B6B
:100A580028512911D8B471D000C1D9FF01C1DAFFDA
:100A6800300EDF6E004B012B2807D8A02907F0D7DE
:100A780028512911D8B40FD000C1D9FF01C1DAFF1C
:100A8800200EDF6E004B012B2807D8A0290728511C
:100A98002911D8A4F1D723C10AF1030E0A17D8B433
:100AA8004CD000C1D9FF01C1DAFF2D0EDF6E004B1B
:100AB800012B43D02AC10AF12BC10BF1D8900A3778
:100AC8000B37D8900A370B37E90E0A25F66EFE0E5B
:100AD8000B21F76E0900F5CFA4F00900F5CFA5F0BA
:100AE8000900F5CFA6F00A00F5CFA7F01DC1A0F0C8
:100AF8001EC1A1F01FC1A2F020C1A3F020EC1BF081
:100B0800A0C0ADF0A1C0AEF0A2C0AFF0A3C0B0F0DD
:100B18000A0EB16F000EB26F000EB36F000EB46F05
:100B28007BEC1DF0AD51300F01012C6F00C1D9FFD6
:100B380001C1DAFF2CC1DFFFBAD72A07D8A02B07DB
:100B48002A29B8E12B29D8A4B5D702C1F6FF03C1D9
:100B5800F7FF024B032B0800F5CF2CF12C51D8A43A
:100B68000FEF00F000C1D9FF01C1DAFFDF6A120000
:100B7800400E516E526A3FEF0BF0250E6818D8B43C
:100B88000AD03CC0D9FF3DC0DAFF68C0DFFF3C4A4D
:100B98003D2A3FEF0BF0000E656E000E646E000EEE
:100BA800606E000E5F6E03D05F843E4A3F2A3EC0EF
:100BB800F6FF3FC0F7FF0800F550300AD8B4F4D765
:100BC8003EC0F6FF3FC0F7FF0800F550BCEC22F02E
:100BD800D8A02FD0000E656E000E646E64C001F0C0
:100BE80065C002F0000E046E0A0E036E30EC22F0AF
:100BF80001C064F002C065F03EC0F6FF3FC0F7FFD9
:100C08000800F5CF46F0D00E4624476E486AFF0E1E
:100C1800482247506426485065223E4A3F2A3EC033
:100C2800F6FF3FC0F7FF0800F550BCEC22F0D8B043
:100C3800D5D73EC0F6FF3FC0F7FF0800F5502E0A93
:100C4800D8A434D0608C3E4A3F2A000E676E000E4E
:100C5800666E21D066C001F067C002F0000E046E17
:100C68000A0E036E30EC22F001C066F002C067F095
:100C78003EC0F6FF3FC0F7FF0800F5CF46F0D00EA4
:100C88004624476E486AFF0E482247506626485059
:100C980067223E4A3F2A3EC0F6FF3FC0F7FF0800E2
:100CA800F550BCEC22F0D8A095D0D4D7000E676ED2
:100CB800000E666E60888ED06084A8D051C0D9FFBF
:100CC80052C0DAFFDECF4FF0DDCF50F0020E5126D2
:100CD800000E52224F505010D8A404D0EB0E4F6E85
:100CE800FF0E506E000E546E000E536E02D0534A23
:100CF800542A53504F24466E54505020476E46C0D5
:100D0800F6FF47C0F7FF000EF86E0F0EF76403D02A
:100D18000800F55005D0F6CFE9FFF7CFEAFFEF500E
:100D28000009D8A4E4D766506710D8B40ED0535041
:100D3800665C6750800A466E5450800A4658D8B0A0
:100D480004D066C053F067C054F06450535C6550DB
:100D58005458D8B005D05350645E5450655A0DD0DD
:100D6800000E656E000E646E08D03CC0D9FF3DC011
:100D7800DAFF200EDF6E3C4A3D2A6406D8A06506DD
:100D88006428F3E16528D8B41BD0EFD74FC0F6FF2D
:100D980050C0F7FF000EF86E3CC0D9FF3DC0DAFF27
:100DA8000F0EF76403D00800F55005D0F6CFE9FF21
:100DB800F7CFEAFFEF50DF6E4F4A502A3C4A3D2AF0
:100DC8005306D8A054065328E1E15428D8B43FEF7D
:100DD8000BF0DCD73EC0F6FF3FC0F7FF3E4A3F2A84
:100DE8000800F5CF68F06850000AD8B44CEF0BF053
:100DF800640AD8B40BD0020AD8B45ED70F0AD8B4A4
:100E080005D01A0AD8B45AD73FEF0BF0070E601472
:100E1800D8B407D360A804D0000E676E060E666EBD
:100E280051C0D9FF52C0DAFFDECF61F0DECF62F0E9
:100E3800DDCF63F0030E5126000E522263AE10D0B0
:100E480061C001F062C002F063C003F056EC22F00A
:100E580001C061F002C062F003C063F0030E5F12CC
:100E6800000E5E6E000E5D6E615062106310D8B4A5
:100E780083D0820E466EFF0E476E61C048F062C096
:100E880049F063C04AF064C04BF0100E05D0D8900A
:100E98004B324A3249324832E82EF9D74850462474
:100EA8005D6E000E47205E6E5D06D8A05E065DC0D2
:100EB80001F05EC002F0000E046E030E036E30EC0B
:100EC80022F001C05DF002C05EF05DC007F05EC0B8
:100ED80008F0000E0A6E0A0E096E62EC1BF007C0DD
:100EE8005DF008C05EF05EAE03D05D06D8A05E0679
:100EF8005D50000808EC0DF01EC055F01FC056F0FC
:100F080020C057F055C00FF056C010F057C011F070
:100F180061C012F062C013F063C014F078EC16F0F0
:100F28000FC055F010C056F011C057F055C001F071
:100F380056C002F057C003F0000E046E800E056E16
:100F48003F0E066E9CEC1CF0D8B004D05D06D8A00D
:100F58005E0612D055C001F056C002F057C003F02B
:100F6800000E046E200E056E410E066E9CEC1CF001
:100F7800D8A002D05D4A5E2A67BE06D067501BE142
:100F88000D0E665CD8B017D061C02AF062C02BF095
:100F980063C02CF06650EBEC11F01EC02DF01FC0A2
:100FA8002EF020C02FF0B1EC13F02AC061F02BC056
:100FB80062F02CC063F05EBE06D05E501EE10A0EE1
:100FC8005D5CD8B01AD0615062106310D8B451D0AB
:100FD80061C025F062C026F063C027F04AEC18F023
:100FE8002550261027102810D8B45EBE42D05E5077
:100FF80004E1020E5D5CD8A03CD055C001F056C09B
:1010080002F057C003F0700E046E890E056E400E94
:10101800066E9CEC1CF0D8B002D0F70E01D0F80E8A
:101028005D26FF0E5E225D5008EC0DF01EC055F0E7
:101038001FC056F020C057F061C001F062C002F036
:1010480063C003F055C004F056C005F057C006F061
:1010580004EC15F001C059F002C05AF003C05BF06F
:1010680004C05CF0000E616E000E626E000E636ECE
:1010780032D061C025F062C026F063C027F04AEC88
:1010880018F025C059F026C05AF027C05BF028C0D8
:101098005CF061C036F062C037F063C038F059C008
:1010A80009F05AC00AF05BC00BF05CC00CF09FEC72
:1010B8001EF009C039F00AC03AF00BC03BF062ECF0
:1010C80020F036C061F037C062F038C063F0000E1F
:1010D8005E6E000E5D6E010E686E6850040DE90EBE
:1010E800F324F66EFE0EF420F76E0900F550595CF5
:1010F8000900F5505A580900F5505B580900F55099
:101108005C58D8A005D0682A0A0E6818D8A4E5D774
:1011180068506624466E000E6720476E5D5046266E
:101128005E5047224650645E4750655A66506710C5
:10113800D8B403D06406D8A065065FC046F0030E95
:101148004616D8B403D06406D8A065065FA42DD08F
:101158005FC046F0030E4616D8B414D03CC0D9FF81
:101168003DC0DAFF2D0EDF6E3C4A3D2A0BD03CC055
:10117800D9FF3DC0DAFF300EDF6E3C4A3D2A6406D7
:10118800D8A0650665BE6ED06550F1E16404D8A0AC
:1011980069D0EDD73CC0D9FF3DC0DAFF200EDF6E25
:1011A8003C4A3D2A6406D8A0650665BE05D0655050
:1011B800F1E16404D8B0EED75FC046F0030E4616DE
:1011C800D8B450D03CC0D9FF3DC0DAFF2D0EDF6E39
:1011D8003C4A3D2A47D059C001F05AC002F05BC0D2
:1011E80003F05CC004F06850040DE90EF324F66EB9
:1011F800FE0EF420F76E0900F5CF05F00900F5CFD3
:1012080006F00900F5CF07F00A00F5CF08F0E5EC85
:101218001BF001C055F002C056F003C057F004C0DF
:1012280058F055C00EF056C00FF057C010F058C017
:1012380011F00A0E126E000E136E000E146E000EE0
:10124800156EE2EC1DF00EC055F00FC056F010C040
:1012580057F011C058F05550300F3CC0D9FF3DC071
:10126800DAFFB5D768066828D8B40CD0B4D73CC024
:10127800D9FF3DC0DAFF300EDF6E3C4A3D2A5D06DD
:10128800D8A05E065EBE05D05E50F1E15D04D8B020
:10129800EED767BE09D0675004E1090E665CD8A096
:1012A80003D0080E686E02D066C068F06850665EAB
:1012B800000E675A6850D8B408D03CC0D9FF3DC06A
:1012C800DAFF2E0EDF6E3C4A3D2A685008EC0DF01E
:1012D8001EC04CF01FC04DF020C04EF061C012F08F
:1012E80062C013F063C014F04CC00FF04DC010F092
:1012F8004EC011F078EC16F00FC025F010C026F0A3
:1013080011C027F04AEC18F025C059F026C05AF051
:1013180027C05BF028C05CF06FD059C001F05AC0FC
:1013280002F05BC003F05CC004F06850040DE90EE5
:10133800F324F66EFE0EF420F76E0900F5CF05F0E3
:101348000900F5CF06F00900F5CF07F00A00F5CF40
:1013580008F0E5EC1BF001C055F002C056F003C0E0
:1013680057F004C058F055C00EF056C00FF057C0E3
:1013780010F058C011F00A0E126E000E136E000E17
:10138800146E000E156EE2EC1DF00EC055F00FC085
:1013980056F010C057F011C058F05550300F3CC0EF
:1013A800D9FF3DC0DAFFDF6E3C4A3D2A59C00EF036
:1013B8005AC00FF05BC010F05CC011F06850040D0B
:1013C800E90EF324F66EFE0EF420F76E0900F5CF51
:1013D80012F00900F5CF13F00900F5CF14F00A0058
:1013E800F5CF15F0E2EC1DF00EC059F00FC05AF021
:1013F80010C05BF011C05CF068066828D8B40CD047
:101408008CD73CC0D9FF3DC0DAFF300EDF6E3C4AB6
:101418003D2A6606D8A0670666506710D8B42BD157
:10142800F0D751C0D9FF52C0DAFFDECF59F0DDCF77
:101438005AF0000E5ABEFF0E5B6E5C6E020E51260D
:10144800000E52225CAE0AD0030E5F125C1E5B1EB9
:101458005A1E596C000E5A225B225C226650671095
:10146800D8A408D059505A105B105C10D8A402D0E8
:10147800664A672A010E686E6850040DE90EF32467
:10148800F66EFE0EF420F76E0900F550595C09005F
:10149800F5505A580900F5505B580900F5505C584A
:1014A800D8A005D0682A0A0E6818D8A4E5D76850CD
:1014B800466E476A6650465C4750800A486E6750D9
:1014C800800A4858D8B003D066C068F010D0685079
:1014D800466E476A4650665C6750800A486E4750B9
:1014E800800A4858D8B003D068C066F0676A64506C
:1014F8006510D8B409D05FC046F0030E4616D8B4BC
:1015080003D06406D8A0650660AC13D06450665C4E
:101518006750800A466E6550800A4658D8B005D094
:101528006650645E6750655A04D0000E656E000E02
:10153800646E6850466E476A6450465C4750800A3D
:10154800486E6550800A4858D8B005D06850645E27
:10155800000E655A04D0000E656E000E646E5FA41E
:101568001ED05FC046F0030E4616D8B408D03CC063
:10157800D9FF3DC0DAFF2D0EDF6E3C4A3D2A64508C
:101588006510D8B470D03CC0D9FF3DC0DAFF300E2A
:10159800DF6E3C4A3D2A6406D8A06506F0D7645041
:1015A8006510D8B40FD03CC0D9FF3DC0DAFF200E7B
:1015B800DF6E3C4A3D2A6406D8A065066450651073
:1015C800D8A4F1D75FC046F0030E4616D8B44BD066
:1015D8003CC0D9FF3DC0DAFF2D0EDF6E3C4A3D2AE4
:1015E80042D066C046F067C047F0D89046364736C6
:1015F800D89046364736E90E4624F66EFE0E47204A
:10160800F76E0900F5CF05F00900F5CF06F00900DF
:10161800F5CF07F00A00F5CF08F059C001F05AC01D
:1016280002F05BC003F05CC004F0E5EC1BF001C005
:101638000EF002C00FF003C010F004C011F00A0E43
:10164800126E000E136E000E146E000E156EE2EC94
:101658001DF00E50300F686E3CC0D9FF3DC0DAFF58
:1016680068C0DFFFBBD76606D8A067066628B9E161
:101678006728D8A4B6D73EC0F6FF3FC0F7FF3E4A5A
:101688003F2A0800F5CF68F06850D8A4C1EF05F0EC
:101698003CC0D9FF3DC0DAFFDF6A12000001C36F0A
:1016A8000001C3AFD9D0C36DC351800A120FD8A0AF
:1016B80079D0000EA96F0A0EA86F000EA36F640EF2
:1016C800A26FC351A06FA16BA0BFA107D6EC1CF0FD
:1016D800A0C0A6F0A1C0A7F0DEEC1AF0090EA6275C
:1016E800A651030DC20EF324F66EFE0EF420F76E1B
:1016F8000900F5CFB1F00900F5CFB2F00A00F5CF37
:10170800B3F0000EA96F640EA86FC351A66FA76B44
:10171800A6BFA707DEEC1AF0120EA627A651030DE6
:10172800C20EF324F66EFE0EF420F76E0900F5CF14
:10173800AEF00900F5CFAFF00A00F5CFB0F0FEEC3F
:1017480015F0AEC0C0F0AFC0C1F0B0C0C2F0C0C0AC
:10175800AEF0C1C0AFF0C2C0B0F0000EA36F0A0E69
:10176800A26FC351A06FA16BA0BFA107D6EC1CF05C
:10177800A051030DC20EF324F66EFE0EF420F76E90
:101788000900F5CFB1F00900F5CFB2F00A00F5CFA6
:10179800B3F0FEEC15F0AEC0BDF0AFC0BEF0B0C007
:1017A800BFF01200C351800A750FD8A043D0000EB5
:1017B800A96F0A0EA86FC351A66FA76BA6BFA7078C
:1017C800DEEC1AF0090EA627A651030DC20EF3246B
:1017D800F66EFE0EF420F76E0900F5CFAEF00900A4
:1017E800F5CFAFF00A00F5CFB0F0000EA36F0A0EE8
:1017F800A26FC351A06FA16BA0BFA107D6EC1CF0CC
:10180800A051030DC20EF324F66EFE0EF420F76EFF
:101818000900F5CFB1F00900F5CFB2F00A00F5CF15
:10182800B3F0FEEC15F0AEC0BDF0AFC0BEF0B0C076
:10183800BFF01200C351030DC20EF324F66EFE0E64
:10184800F420F76E0900F5CFBDF00900F5CFBEF022
:101858000A00F5CFBFF01200C351800A120FD8A0BA
:1018680079D0000EA96F0A0EA86F000EA36F640E40
:10187800A26FC351A06FA16BA0BFA107D6EC1CF04B
:10188800A0C0A6F0A1C0A7F0DEEC1AF0090EA627AA
:10189800A651030D9B0EF324F66EFE0EF420F76E90
:1018A8000900F5CFB1F00900F5CFB2F00A00F5CF85
:1018B800B3F0000EA96F640EA86FC351A66FA76B93
:1018C800A6BFA707DEEC1AF0120EA627A651030D35
:1018D8009B0EF324F66EFE0EF420F76E0900F5CF8A
:1018E800AEF00900F5CFAFF00A00F5CFB0F0FEEC8E
:1018F80015F0AEC0C0F0AFC0C1F0B0C0C2F0C0C0FB
:10190800AEF0C1C0AFF0C2C0B0F0000EA36F0A0EB7
:10191800A26FC351A06FA16BA0BFA107D6EC1CF0AA
:10192800A051030D9B0EF324F66EFE0EF420F76E05
:101938000900F5CFB1F00900F5CFB2F00A00F5CFF4
:10194800B3F0FEEC15F0AEC0BDF0AFC0BEF0B0C055
:10195800BFF01200C351800A750FD8A043D0000E03
:10196800A96F0A0EA86FC351A66FA76BA6BFA707DA
:10197800DEEC1AF0090EA627A651030D9B0EF324E0
:10198800F66EFE0EF420F76E0900F5CFAEF00900F2
:10199800F5CFAFF00A00F5CFB0F0000EA36F0A0E36
:1019A800A26FC351A06FA16BA0BFA107D6EC1CF01A
:1019B800A051030D9B0EF324F66EFE0EF420F76E75
:1019C8000900F5CFB1F00900F5CFB2F00A00F5CF64
:1019D800B3F0FEEC15F0AEC0BDF0AFC0BEF0B0C0C5
:1019E800BFF01200C351030D9B0EF324F66EFE0EDA
:1019F800F420F76E0900F5CFBDF00900F5CFBEF071
:101A08000A00F5CFBFF01200246E24AED9D0246CA2
:101A18002450800A120FD8A079D0000E0A6E0A0E40
:101A2800096E000E046E640E036E2450016E026A85
:101A380001BE02060EEC1DF001C007F002C008F05E
:101A480062EC1BF0090E07260750030DC20EF324A3
:101A5800F66EFE0EF420F76E0900F5CF12F00900BD
:101A6800F5CF13F00A00F5CF14F0000E0A6E640EDD
:101A7800096E2450076E086A07BE080662EC1BF060
:101A8800120E07260750030DC20EF324F66EFE0E43
:101A9800F420F76E0900F5CF0FF00900F5CF10F02C
:101AA8000A00F5CF11F078EC16F00FC021F010C045
:101AB80022F011C023F021C00FF022C010F023C083
:101AC80011F0000E046E0A0E036E2450016E026AB5
:101AD80001BE02060EEC1DF00150030DC20EF324E8
:101AE800F66EFE0EF420F76E0900F5CF12F009002D
:101AF800F5CF13F00A00F5CF14F078EC16F00FC00C
:101B08001EF010C01FF011C020F012002450800AEF
:101B1800750FD8A043D0000E0A6E0A0E096E245025
:101B2800076E086A07BE080662EC1BF0090E072656
:101B38000750030DC20EF324F66EFE0EF420F76E66
:101B48000900F5CF0FF00900F5CF10F00A00F5CF26
:101B580011F0000E046E0A0E036E2450016E026A24
:101B680001BE02060EEC1DF00150030DC20EF32457
:101B7800F66EFE0EF420F76E0900F5CF12F009009C
:101B8800F5CF13F00A00F5CF14F078EC16F00FC07B
:101B98001EF010C01FF011C020F012002450030DD9
:101BA800C20EF324F66EFE0EF420F76E0900F5CF90
:101BB8001EF00900F5CF1FF00A00F5CF20F0120043
:101BC8002450800A120FD8A079D0000E0A6E0A0E8F
:101BD800096E000E046E640E036E2450016E026AD4
:101BE80001BE02060EEC1DF001C007F002C008F0AD
:101BF80062EC1BF0090E07260750030D9B0EF32419
:101C0800F66EFE0EF420F76E0900F5CF12F009000B
:101C1800F5CF13F00A00F5CF14F0000E0A6E640E2B
:101C2800096E2450076E086A07BE080662EC1BF0AE
:101C3800120E07260750030D9B0EF324F66EFE0EB8
:101C4800F420F76E0900F5CF0FF00900F5CF10F07A
:101C58000A00F5CF11F078EC16F00FC021F010C093
:101C680022F011C023F021C00FF022C010F023C0D1
:101C780011F0000E046E0A0E036E2450016E026A03
:101C880001BE02060EEC1DF00150030D9B0EF3245D
:101C9800F66EFE0EF420F76E0900F5CF12F009007B
:101CA800F5CF13F00A00F5CF14F078EC16F00FC05A
:101CB8001EF010C01FF011C020F012002450800A3E
:101CC800750FD8A043D0000E0A6E0A0E096E245074
:101CD800076E086A07BE080662EC1BF0090E0726A5
:101CE8000750030D9B0EF324F66EFE0EF420F76EDC
:101CF8000900F5CF0FF00900F5CF10F00A00F5CF75
:101D080011F0000E046E0A0E036E2450016E026A72
:101D180001BE02060EEC1DF00150030D9B0EF324CC
:101D2800F66EFE0EF420F76E0900F5CF12F00900EA
:101D3800F5CF13F00A00F5CF14F078EC16F00FC0C9
:101D48001EF010C01FF011C020F012002450030D27
:101D58009B0EF324F66EFE0EF420F76E0900F5CF05
:101D68001EF00900F5CF1FF00A00F5CF20F0120091
:101D7800010EAA6F010EBEEC1FF02D0E0101006FBF
:101D8800010E016FC90E026FFF0E036F09EC00F020
:101D98002D0E0001AE6F010EAF6F0AEC22F0070E98
:101DA800A16FD00EA06FD0EC21F0030EAA6F010E28
:101DB800BEEC1FF02D0E0101006F010E016F870EA2
:101DC800026FFF0E036F09EC00F02D0E0001AE6FDD
:101DD800010EAF6F0AEC22F0070EA16FD00EA06FB4
:101DE800D0EC21F0010EAA6F010EBEEC1FF02D0EF3
:101DF8000101006F010E016F540E026FFF0E036F99
:101E080009EC00F02D0E0001AE6F010EAF6F0AEC69
:101E180022F0000EA16FC80EA06FD0EC21F0020EC8
:101E2800AA6F010EBEEC1FF02D0E0101006F010E0E
:101E3800016F540E026FFF0E036F09EC00F02D0EB8
:101E48000001AE6F010EAF6F0AEC22F0000EA16F19
:101E5800C80EA06FD0EC21F0030EAA6F010EBEECE5
:101E68001FF02D0E0101006F010E016F540E026F5D
:101E7800FF0E036F09EC00F02D0E0001AE6F010E8E
:101E8800AF6F0AEC22F0000EA16FC80EA06FD0EC65
:101E980021F0040EAA6F010EBEEC1FF02D0E0101F9
:101EA800006F010E016F540E026FFF0E036F09ECF5
:101EB80000F02D0E0001AE6F010EAF6F0AEC22F09C
:101EC800000EA16FC80EA06FD0EC21F0010EAA6F12
:101ED800010EBEEC1FF02D0E0101006F010E016F07
:101EE800760E026FFF0E036F09EC00F02D0E000155
:101EF800AE6F010EAF6F0AEC22F0070EA16FD00E85
:101F0800A06FD0EC21F0030EAA6F010EBEEC1FF0FB
:101F18002D0E0101006F010E016F650E026FFF0E9D
:101F2800036F09EC00F02D0E0001AE6F010EAF6FCC
:101F38000AEC22F0070EA16FD00EA06FD0EC21F0B2
:101F4800010EAA6F010EBEEC1FF02D0E0101006FED
:101F5800010E016F980E026FFF0E036F09EC00F07F
:101F68002D0E0001AE6F010EAF6F0AEC22F0070EC6
:101F7800A16FD00EA06FD0EC21F0030EAA6F010E56
:101F8800BEEC1FF02D0E0101006F010E016FB90E9E
:101F9800026FFF0E036F09EC00F02D0E0001AE6F0B
:101FA800010EAF6F0AEC22F00F0EA16FA00EA06F0A
:101FB800D0EC21F01200CBEC22F09CEC22F043ECA8
:101FC8001EF0F6EC22F0BCEC0EF0828A110EA16F26
:101FD800FF0EA26F79EC21F00C0ECDEC1EF0ACECEC
:101FE80022F008EC23F0180EF06E9480D58E7AC19A
:101FF80045F17BC146F17BC047F17CC048F1040044
:1020080082BA04D00101436B432B02D00101436B18
:10201800433B434782504319DF0B4319826E000E3E
:102028004C6F020E4C19D8A427D04C5146EC1DF029
:10203800BBC049F1BCC04AF1BDC04BF149C1AEF0CB
:102048004AC1AFF04BC1B0F0000EB16FC80EB26F0D
:10205800420EB36FFEEC15F001014C51030D6D0EED
:10206800F324D96E010EF420DA6EAEC0DEFFAFC0E5
:10207800DEFFB0C0DEFF18D04C5146EC1DF0BBC0EF
:1020880049F1BCC04AF1BDC04BF101014C51030DEF
:102098006D0EF324D96E010EF420DA6E49C1DEFF0D
:1020A8004AC1DEFF4BC1DEFF4C2B020E4C65B9D78F
:1020B800000E0001A16F140EA06FD0EC21F0D8EC37
:1020C80022F0010178517911D8B402D0828401D06C
:1020D800829476517711D8B402D0828801D0829840
:1020E80045514611D8A403D0D8EC22F07FD7D8ECBC
:1020F80022F0D59E62D081B60ED0000E0001A16FED
:10210800FA0EA06FD0EC21F081B603D00101804B0C
:10211800812BD8EC22F081B863D0000E0001A16FAA
:10212800FA0EA06FD0EC21F081B804D0010180072D
:10213800D8A08107D8EC22F053D081B60ED0000E7B
:102148000001A16FFA0EA06FD0EC21F081B603D088
:1021580001017E4B7F2BD8EC22F081B841D0000ED4
:102168000001A16FFA0EA06FD0EC21F081B8E2D780
:1021780001017E07D8A07F07DDD781B60ED0000EFB
:102188000001A16FFA0EA06FD0EC21F081B603D048
:1021980001017C4B7D2BD8EC22F081B821D0000EB8
:1021A8000001A16FFA0EA06FD0EC21F081B8C2D760
:1021B80001017C07D8A07D07BDD747C143F148C1BD
:1021C80044F101014451000AD8A40AD04351000A3D
:1021D800D8B491D7010AD8B4B0D7030AD8B4CDD7A8
:1021E800FCEC22F003D70001C86F6D0E0001C86532
:1021F8007CD00A0EA46F640EA06FC8518FEC21F03A
:10220800BFEC20F0C06FC051030D1B0EF326000E6B
:10221800F422C20EF324F66EFE0EF420F76E0900C7
:10222800F5CFB1F00900F5CFB2F00A00F5CFB3F061
:10223800640EA46FC851BFEC20F0C16FC151030DEB
:10224800360EF326000EF422C20EF324F66EFE0EAE
:10225800F420F76E0900F5CFAEF00900F5CFAFF026
:102268000A00F5CFB0F0FEEC15F0AEC0C5F0AFC077
:10227800C6F0B0C0C7F00A0EA06FC8518FEC21F0AD
:10228800C06FC051030DC20EF324F66EFE0EF4208B
:10229800F76E0900F5CFB1F00900F5CFB2F00A00EA
:1022A800F5CFB3F0C5C0AEF0C6C0AFF0C7C0B0F050
:1022B800FEEC15F0AEC0C2F0AFC0C3F0B0C0C4F0C1
:1022C800C2C0AEF0C3C0AFF0C4C0B0F0000EB16F72
:1022D800000EB26F3F0EB36FFEEC15F0AEC0BDF04E
:1022E800AFC0BEF0B0C0BFF012000A0EC8654FD034
:1022F8000A0EA06FC8518FEC21F0C06FC051030DBA
:10230800C20EF324F66EFE0EF420F76E0900F5CF28
:10231800B1F00900F5CFB2F00A00F5CFB3F00A0E1C
:10232800A46FC851BFEC20F0C16FC151030D1B0E43
:10233800F326000EF422C20EF324F66EFE0EF420ED
:10234800F76E0900F5CFAEF00900F5CFAFF00A003F
:10235800F5CFB0F0FEEC15F0AEC0C5F0AFC0C6F0DA
:10236800B0C0C7F0C5C0AEF0C6C0AFF0C7C0B0F0CF
:10237800000EB16F000EB26F3F0EB36FFEEC15F09A
:10238800AEC0BDF0AFC0BEF0B0C0BFF01200C851C3
:10239800030DC20EF324F66EFE0EF420F76E09004C
:1023A800F5CFAEF00900F5CFAFF00A00F5CFB0F0E9
:1023B800000EB16F000EB26F3F0EB36FFEEC15F05A
:1023C800AEC0BDF0AFC0BEF0B0C0BFF01200296E05
:1023D8006D0E29647CD00A0E056E640E016E2950BC
:1023E800BBEC21F0DDEC20F0216E2150030D1B0E1B
:1023F800F326000EF422C20EF324F66EFE0EF4202D
:10240800F76E0900F5CF12F00900F5CF13F00A00B6
:10241800F5CF14F0640E056E2950DDEC20F0226E25
:102428002250030D360EF326000EF422C20EF324BA
:10243800F66EFE0EF420F76E0900F5CF0FF00900D6
:10244800F5CF10F00A00F5CF11F078EC16F00FC0B8
:1024580026F010C027F011C028F00A0E016E29508E
:10246800BBEC21F0216E2150030DC20EF324F66E51
:10247800FE0EF420F76E0900F5CF12F00900F5CF33
:1024880013F00A00F5CF14F026C00FF027C010F0A3
:1024980028C011F078EC16F00FC023F010C024F01B
:1024A80011C025F023C00FF024C010F025C011F092
:1024B800000E126E000E136E3F0E146E78EC16F0BE
:1024C8000FC01EF010C01FF011C020F012000A0E3D
:1024D80029644FD00A0E016E2950BBEC21F0216E01
:1024E8002150030DC20EF324F66EFE0EF420F76E93
:1024F8000900F5CF12F00900F5CF13F00A00F5CF67
:1025080014F00A0E056E2950DDEC20F0226E2250E0
:10251800030D1B0EF326000EF422C20EF324F66EF2
:10252800FE0EF420F76E0900F5CF0FF00900F5CF85
:1025380010F00A00F5CF11F078EC16F00FC026F075
:1025480010C027F011C028F026C00FF027C010F0E7
:1025580028C011F0000E126E000E136E3F0E146E9E
:1025680078EC16F00FC01EF010C01FF011C020F05C
:1025780012002950030DC20EF324F66EFE0EF4204D
:10258800F76E0900F5CF0FF00900F5CF10F00A003B
:10259800F5CF11F0000E126E000E136E3F0E146E82
:1025A80078EC16F00FC01EF010C01FF011C020F01C
:1025B8001200CBC0CFF0D06BD16BCA35CF3701E357
:1025C800D081CF51D46FCEC0CFF0D06BD16BCD3589
:1025D800CF3701E3D081CF51D36FD451D8B40AD0CB
:1025E800D351D45DD8B00DD0D451D35DCF6F180E70
:1025F800CF6507D0CCC0C9F0CDC0CAF0CEC0CBF0F3
:102608001200D351D8B40AD0D451D35DD8B00DD06C
:10261800D351D45DCF6F180ECF6507D0C9C0C9F0AC
:10262800CAC0CAF0CBC0CBF01200060ED26FCBBF27
:10263800D28FCEBFD28DCA8FFF0EC917FF0ECA1711
:10264800000ECB17CD8FFF0ECC17FF0ECD17000E47
:10265800CE17D351D45DD8B01BD0D890CC37CD3756
:10266800CE37D307D451D319D8B40DD0D207D2C09E
:10267800CFF0070ECF17D8B406D0EFD7D890CB330A
:10268800CA33C933D42BD351D419D8B41FD0F6D7F1
:10269800D451D35DD8B01AD0D890C937CA37CB3700
:1026A800D407D451D319D8B40DD0D207D2C0CFF0A3
:1026B800070ECF17D8B406D0EFD7D890CE33CD3386
:1026C800CC33D32BD351D419D8A4F7D7D2AF0CD04D
:1026D800FF0EC91BFF0ECA1BFF0ECB1B010EC9271D
:1026E800000ECA23000ECB23D2AD0CD0FF0ECC1B9C
:1026F800FF0ECD1BFF0ECE1B010ECC27000ECD23E7
:10270800000ECE23000ED26FC951CC27CA51CD235B
:10271800CB51CE23CEAF0ED0FF0ECC1BFF0ECD1B60
:10272800FF0ECE1B010ECC27000ECD23000ECE23AC
:10273800010ED26FCCC0A0F0CDC0A1F0CEC0A2F0E7
:10274800D4C0A3F0D2C0A4F0B3EC18F0A0C0C9F074
:10275800A1C0CAF0A2C0CBF012002CC030F0316A80
:10276800326A2B34303601E331803050356E2FC059
:1027780030F0316A326A2E34303601E3318030501D
:10278800346E3550D8B40AD03450355CD8B00DD03A
:102798003550345C306E180E306407D02DC02AF0E6
:1027A8002EC02BF02FC02CF012003450D8B40AD011
:1027B8003550345CD8B00DD03450355C306E180EBE
:1027C800306407D02AC02AF02BC02BF02CC02CF084
:1027D8001200060E336E2CBE338E2FBE338C2B8E1A
:1027E800FF0E2A16FF0E2B16000E2C162E8EFF0E2D
:1027F8002D16FF0E2E16000E2F163450355CD8B04D
:102808001BD0D8902D362E362F3634063550341836
:10281800D8B40DD0330633C030F0070E3016D8B414
:1028280006D0EFD7D8902C322B322A32352A3450A2
:102838003518D8B41FD0F6D73550345CD8B01AD074
:10284800D8902A362B362C36350635503418D8B45D
:102858000DD0330633C030F0070E3016D8B406D08A
:10286800EFD7D8902F322E322D32342A34503518E3
:10287800D8A4F7D733AE0CD0FF0E2A1AFF0E2B1AA6
:10288800FF0E2C1A010E2A26000E2B22000E2C22D7
:1028980033AC0CD0FF0E2D1AFF0E2E1AFF0E2F1A76
:1028A800010E2D26000E2E22000E2F22000E336E52
:1028B8002A502D262B502E222C502F222FAE0ED0F0
:1028C800FF0E2D1AFF0E2E1AFF0E2F1A010E2D269F
:1028D800000E2E22000E2F22010E336E2DC001F0A5
:1028E8002EC002F02FC003F035C004F033C005F04D
:1028F8000AEC19F001C02AF002C02BF003C02CF03A
:102908001200A2C0A6F0A76BA86BA135A63701E3F9
:10291800A781A651AE6FAE51D8A409D0000EA06F02
:10292800000EA16F000EA26F000EA36F1200A5C0CB
:10293800A6F0A76BA86BA435A63701E3A781A6511B
:10294800AD6FAD51D8B4EAD7A18FFF0EA017FF0E17
:10295800A117000EA217A48FFF0EA317FF0EA4172E
:10296800000EA517000EA96F000EAA6F000EAB6F20
:10297800000EAC6F7F0EAE5FAD51980FAE5F180EB4
:10298800AD6FD890A937AA37AB37AC37A351A05D44
:10299800A451A159A551A259D8A007D0A351A05F0D
:1029A800A451A15BA551A25BA981D890A037A137FA
:1029B800A237AD2FE6D7AEAF0DD0AE51800A970F34
:1029C800D8A0ACD7D890AC33AB33AA33A933AE3F39
:1029D800F9D70DD0170EAE6507D0A0D7D890A93774
:1029E800AA37AB37AC37AE07AE51D8A4F7D7A9C0D2
:1029F800A0F0AAC0A1F0ABC0A2F0ACC0A3F0120036
:102A080003C007F0086A096A0234073601E3088040
:102A180007500F6E0F50D8A409D0000E016E000E9B
:102A2800026E000E036E000E046E120006C007F060
:102A3800086A096A0534073601E3088007500E6EF4
:102A48000E50D8B4EAD7028EFF0E0116FF0E0216FA
:102A5800000E0316058EFF0E0416FF0E0516000E57
:102A68000616000E0A6E000E0B6E000E0C6E000E9F
:102A78000D6E7F0E0F5E0E50980F0F5E180E0E6EC5
:102A8800D8900A360B360C360D360450015C0550CA
:102A9800025806500358D8A007D00450015E0550CC
:102AA800025A0650035A0A80D89001360236033675
:102AB8000E2EE6D70FAE0DD00F50800A970FD8A074
:102AC800ACD7D8900D320C320B320A320F3EF9D700
:102AD8000DD0170E0F6407D0A0D7D8900A360B3642
:102AE8000C360D360F060F50D8A4F7D70AC001F0E0
:102AF8000BC002F00CC003F00DC004F0120000017E
:102B0800A235A335AB6FAB51D8A409D0000EA06F86
:102B1800000EA16F000EA26F000EA36F1200A53564
:102B2800A635AA6FAA51D8B4F1D7A28FFF0EA01765
:102B3800FF0EA117FF0EA217000EA317A58FFF0EF9
:102B4800A317FF0EA417FF0EA517000EA617000E59
:102B5800A66F000EA76F000EA86F000EA96F7F0E5C
:102B6800AB5FAA51A00FAB5F200EAA6FD890A63713
:102B7800A737A837A937A351A05DA451A159A551DA
:102B8800A259A651A359D8A009D0A351A05FA45116
:102B9800A15BA551A25BA651A35BA681D890A037E3
:102BA800A137A237A337AA2FE1D7ABAF0DD0AB51CE
:102BB800800A9F0FD8A0AAD7D890A933A833A733E3
:102BC800A633AB3FF9D70DD01F0EAB6507D09ED704
:102BD800D890A637A737A837A937AB07AB51D8A4E1
:102BE800F7D7A6C0A0F0A7C0A1F0A8C0A2F0A9C0BE
:102BF800A3F01200B0C0B4F0B56BB66BAF35B43704
:102C080001E3B581B451B76FB751D8A407D0000E0E
:102C1800AE6F000EAF6F000EB06F1200B3C0B4F00D
:102C2800B56BB66BB235B43701E3B581B451BC6F3F
:102C3800BC51D8A407D0000EAE6F000EAF6F000EC7
:102C4800B06F1200BC517B0FB727B0C0BCF0B351B6
:102C5800BC1B800EBC17AF8FB28FFF0EB117FF0ED3
:102C6800B217000EB317000EB86F000EB96F000E42
:102C7800BA6F070EBB6FAEA106D0B151B827B251DB
:102C8800B923B351BA23D890B033AF33AE33D89009
:102C9800B137B237B337BB2FEED7090EBB6FAEA132
:102CA80006D0B151B827B251B923B351BA23D8903D
:102CB800B033AF33AE33D890BA33B933B833BB2F50
:102CC800EED7B8C0A0F0B9C0A1F0BAC0A2F0B7C0A2
:102CD800A3F0BCC0A4F0B3EC18F0A0C0AEF0A1C043
:102CE800AFF0A2C0B0F0120011C015F0166A176A52
:102CF8001034153601E316801550186E1850D8A4F4
:102D080007D0000E0F6E000E106E000E116E12002E
:102D180014C015F0166A176A1334153601E31680C5
:102D280015501D6E1D50D8A407D0000E0F6E000E52
:102D3800106E000E116E12001D507B0F182611C068
:102D48001DF014501D1A800E1D16108E138EFF0EC6
:102D58001216FF0E1316000E1416000E196E000E32
:102D68001A6E000E1B6E070E1C6E0FA006D01250B6
:102D7800192613501A2214501B22D89011321032DF
:102D88000F32D8901236133614361C2EEED7090E91
:102D98001C6E0FA006D01250192613501A22145078
:102DA8001B22D890113210320F32D8901B321A32AF
:102DB80019321C2EEED719C001F01AC002F01BC040
:102DC80003F018C004F01DC005F00AEC19F001C0AA
:102DD8000FF002C010F003C011F0120003340434E5
:102DE8000C6E0C50D8A409D0000E016E000E026EB5
:102DF800000E036E000E046E1200063407340B6ECC
:102E08000B50D8B4F1D7038EFF0E0116FF0E021631
:102E1800FF0E0316000E0416068EFF0E0416FF0E94
:102E28000516FF0E0616000E0716000E076E000E9A
:102E3800086E000E096E000E0A6E7F0E0C5E0B50B7
:102E4800A00F0C5E200E0B6ED89007360836093698
:102E58000A360450015C05500258065003580750C2
:102E68000458D8A009D00450015E0550025A0650F3
:102E7800035A0750045A0780D890013602360336A1
:102E880004360B2EE1D70CAE0DD00C50800A9F0FE4
:102E9800D8A0AAD7D8900A320932083207320C3E95
:102EA800F9D70DD01F0E0C6407D09ED7D8900736DF
:102EB800083609360A360C060C50D8A4F7D707C0CE
:102EC80001F008C002F009C003F00AC004F01200C3
:102ED800AEC0B2F0B36BB46BAD35B23701E3B381BA
:102EE800B251B96FB951D8A407D0000EAC6F000E1B
:102EF800AD6F000EAE6F1200B1C0B2F0B36BB46B21
:102F0800B035B23701E3B381B251BA6FBA51D8A420
:102F180007D0000EAC6F000EAD6F000EAE6F120042
:102F2800000EB66F000EB76F000EB86FBA51890F5A
:102F3800B95FAEC0BAF0B151BA1B800EBA17AD8FE7
:102F4800FF0EAC17FF0EAD17000EAE17B08FFF0EB9
:102F5800AF17FF0EB017000EB117180EB56FD89047
:102F6800B637B737B837AF51AC5DB051AD59B1517D
:102F7800AE59D8A007D0AF51AC5FB051AD5BB151DD
:102F8800AE5BB681D890AC37AD37AE37B52FE7D743
:102F9800B6C0A0F0B7C0A1F0B8C0A2F0B9C0A3F005
:102FA800BAC0A4F0B3EC18F0A0C0ACF0A1C0ADF06A
:102FB800A2C0AEF01200C6C0C8F00001C96BCA6B4F
:102FC800C535C83701E3C981C851D26FD251D8A4D9
:102FD80009D0000EC46F000EC56F000EC66F000E3C
:102FE800C76F1200170EC86FC4C0C9F0C5C0CAF0B9
:102FF800C6C0CBF0C829CC6F04D0D890CB33CA3325
:10300800C933CC2FFAD70001C951CD6FC58FFF0E38
:10301800C417FF0EC517000EC617C451CE6FC55191
:10302800CF6FC651D06FD16B8E0ED25FD2AF0DD09D
:10303800D251800A8F0FD8A0CCD7D890D133D033B3
:10304800CF33CE33D23FF9D70DD0170ED26507D084
:10305800C0D7D890CE37CF37D037D137D207D25153
:10306800D8A4F7D7CD51D8B408D0D11FD01FCF1FBF
:10307800CE6D000ECF23D023D123CEC0C4F0CFC055
:10308800C5F0D0C0C6F0D1C0C7F0120027C029F0E3
:103098002A6A2B6A2634293601E32A802950336E9E
:1030A8003350D8A409D0000E256E000E266E000EEF
:1030B800276E000E286E1200170E296E25C02AF002
:1030C80026C02BF027C02CF029282D6E04D0D890CC
:1030D8002C322B322A322D2EFAD72A502E6E268EDB
:1030E800FF0E2516FF0E2616000E271625502F6EEA
:1030F8002650306E2750316E326A8E0E335E33AEF4
:103108000DD03350800A8F0FD8A0CDD7D890323247
:10311800313230322F32333EF9D70DD0170E3364A7
:1031280007D0C1D7D8902F363036313632363306ED
:103138003350D8A4F7D72E50D8B408D0321E311E39
:10314800301E2F6C000E3022312232222FC025F083
:1031580030C026F031C027F032C028F01200A35149
:10316800D8B405D0A051A111A211D8A40CD0000E3A
:10317800A06F000EA16F000EA26F1200A32BD890B3
:10318800A233A133A033000EA015A56F000EA11520
:10319800A66FFE0EA215A76FA551A611A711D8B448
:1031A8000CD0ECD7A32B010EA027000EA123000EF4
:1031B800A223D890A233A133A033000EA015A56F87
:1031C800000EA115A66FFF0EA215A76FA551A61197
:1031D800A711D8B406D0E6D7A307D890A037A1374F
:1031E800A237A1BF03D0020EA361F6D7A3A1A19F66
:1031F800D890A333A351A213A451D8A4A28FA0C0DE
:10320800A0F0A1C0A1F0A2C0A2F012000450D8B44E
:1032180005D0015002100310D8A40CD0000E016E86
:10322800000E026E000E036E1200042AD8900332BC
:1032380002320132000E0114066E000E0214076EEF
:10324800FE0E0314086E065007100810D8B40CD0F0
:10325800ECD7042A010E0126000E0222000E0322DA
:10326800D890033202320132000E0114066E000EAD
:103278000214076EFF0E0314086E0650071008109C
:10328800D8B406D0E6D70406D890013602360336FD
:1032980002BE03D0020E0460F6D704A0029ED890A6
:1032A8000432045003120550D8A4038E01C001F063
:1032B80002C002F003C003F012000101815104E1D1
:1032C8003C0E805DD8A006D07E4B7F2B000E816F10
:1032D800000E806F7F5104E13C0E7E5DD8A006D0C1
:1032E8007C4B7D2B000E7F6F000E7E6F7D5104E1BD
:1032F800180E7C5DD8A004D0000E7D6F000E7C6F88
:1033080080518111D8B481B80BD07B507C10D8A4DF
:1033180007D07E07D8A07F07000E816F3B0E806F15
:103328007E517F11D8B481B80BD07B047C10D8A40F
:1033380007D07C07D8A07D07000E7F6F3B0E7E6FFD
:103348007C517D11D8A4120081B81200020E7B189E
:103358007C10D8A41200000E7D6F170E7C6F12002F
:103368000101815104E13C0E805DD8A006D07E4B5E
:103378007F2B000E816F000E806F7F5104E13C0EA1
:103388007E5DD8A006D07C4B7D2B000E7F6F000E93
:103398007E6F7D5104E1180E7C5DD8A004D0000E2C
:1033A8007D6F000E7C6F80518111D8B481B80BD02D
:1033B8007B507C10D8A407D07E07D8A07F07000ECA
:1033C800816F3B0E806F7E517F11D8B481B80BD0CE
:1033D8007B047C10D8A407D07C07D8A07D07000EFA
:1033E8007F6F3B0E7E6F7C517D11D8A4120081B88F
:1033F8001200020E7B187C10D8A41200000E7D6FFC
:10340800170E7C6F1200020EAA6F010EBEEC1FF0A1
:10341800010178517911D8B404D0FB0E3D6FFF0E2D
:1034280003D0F70E3D6FFF0E3E6F2D0E006F010E9D
:10343800016FF20E026FFF0E036F3DC104F13EC132
:1034480005F109EC00F02D0E0001AE6F010EAF6F13
:103458000AEC22F0010176517711D8B404D0FB0EA2
:103468003D6FFF0E03D0F70E3D6FFF0E3E6F2D0E22
:10347800006F010E016FE20E026FFF0E036F3DC178
:1034880004F13EC105F109EC00F02D0E0001AE6F0C
:10349800010EAF6F0AEC22F0120061EC19F080C146
:1034A8002DF181C12EF17EC12FF17FC130F17CC198
:1034B80031F17DC132F17A517B11D8A419D0030EB4
:1034C8000001AA6F010EBEEC1FF0330E0101006F60
:1034D800010E016FA90E026FFF0E036F09EC00F0D9
:1034E800330E0001AE6F010EAF6F0AEC22F012002E
:1034F800030E0001AA6F010EBEEC1FF0330E01018E
:10350800006F010E016F2B0E026FFF0E036F31C1AA
:1035180004F132C105F12FC106F130C107F12DC107
:1035280008F12EC109F109EC00F0DAD7020E0B6E92
:10353800010E01EC20F0010178517911D8B404D0C2
:10354800FB0E796EFF0E03D0F70E796EFF0E7A6EC2
:10355800690E3C6E3D6AF20E3E6EFF0E3F6E79C0FC
:1035680040F07AC041F0BCEC05F0690E0F6E106AAD
:1035780068EC22F0010176517711D8B404D0FB0E23
:10358800796EFF0E03D0F70E796EFF0E7A6E690E14
:103598003C6E3D6AE20E3E6EFF0E3F6E79C040F013
:1035A8007AC041F0BCEC05F0690E0F6E106A68EC49
:1035B80022F01200000EAB6FA9AF06D0A86DA91FAC
:1035C800D8B0A92B010EAB6FA7AF06D0A66DA71F69
:1035D800D8B0A72B010EAB1B000EAD6F000EAC6F61
:1035E800A851A911D8B41CD0010EAA6F04D0D89044
:1035F800A837A937AA2BA9AFFAD7D890AC37AD37D7
:10360800A851A65DA951A759D8A005D0A851A65F71
:10361800A951A75BAC81D890A933A833AA2FEDD7BD
:10362800AB51D8B404D0AC6DAD1FD8B0AD2BACC085
:10363800A6F0ADC0A7F01200000E0001A86F000EA2
:10364800A96F000EAA6F000EAB6FA451A511A611A9
:10365800A711D8B42AD0010EAC6F06D0D890A437E1
:10366800A537A637A737AC2BA7AFF8D7D890A83778
:10367800A937AA37AB37A451A05DA551A159A651C6
:10368800A259A751A359D8A009D0A451A05FA55108
:10369800A15BA651A25BA751A35BA881D890A733D1
:1036A800A633A533A433AC2FE1D7A8C0A0F0A9C096
:1036B800A1F0AAC0A2F0ABC0A3F01200000E0C6EDD
:1036C8000AAE06D0096C0A1ED8B00A2A010E0C6E82
:1036D80008AE06D0076C081ED8B0082A010E0C1ACE
:1036E800000E0E6E000E0D6E09500A10D8B41CD0D4
:1036F800010E0B6E04D0D89009360A360B2A0AAE92
:10370800FAD7D8900D360E360950075C0A5008587B
:10371800D8A005D00950075E0A50085A0D80D890E5
:103728000A3209320B2EEDD70C50D8B404D00D6CE8
:103738000E1ED8B00E2A0DC007F00EC008F01200F9
:10374800B4EC19F080C190F081C191F07EC192F083
:103758007FC193F07CC194F07DC195F07A517B11C3
:10376800D8A414D0030E0B6E010E01EC20F0800ECD
:103778003C6E3D6AA90E3E6EFF0E3F6EBCEC05F036
:10378800800E0F6E106A68EC22F01200030E0B6EAA
:10379800010E01EC20F0800E3C6E3D6A2B0E3E6E51
:1037A800FF0E3F6E94C040F095C041F092C042F0C9
:1037B80093C043F090C044F091C045F0BCEC05F0D4
:1037C800DFD7000E096E000E0A6E000E0B6E000E9B
:1037D8000C6E0550061007100810D8B42AD0010E38
:1037E8000D6E06D0D89005360636073608360D2AEF
:1037F80008AEF8D7D89009360A360B360C3605507D
:10380800015C065002580750035808500458D8A0C5
:1038180009D00550015E0650025A0750035A085055
:10382800045A0980D89008320732063205320D2E24
:10383800E1D709C001F00AC002F00BC003F00CC0C8
:1038480004F012000600E9CF96F0EACF97F0D9CF3E
:1038580098F0DACF99F0F3CF9AF0F4CF9BF0F6CF47
:103868009CF0F7CF9DF0F8CF9EF0F5CF9FF0F2A433
:1038780003D025EC1FF00CD0F0A005D04AEC21F0C5
:10388800E3EC22F005D0F0A203D0A5EC21F0F8D7A4
:103898009FC0F5FF9EC0F8FF9DC0F7FF9CC0F6FFD4
:1038A8009BC0F4FF9AC0F3FF99C0DAFF98C0D9FF14
:1038B80097C0EAFF96C0E9FF7D921100A2AF0FD032
:1038C800000EA66F000EA76F800EA86FA051A65D10
:1038D800A06FA151A759A16FA251A859A26FA5AF76
:1038E8000FD0000EA66F000EA76F800EA86FA35111
:1038F800A65DA36FA451A759A46FA551A859A56F98
:10390800000EA01B000EA11B800EA21B000EA31B05
:10391800000EA41B800EA51BA351A05DA451A159A4
:10392800A551A259D8B002D0D8901200D880120060
:1039380003AE0FD0000E076E000E086E800E096EE3
:103948000150075C016E02500858026E0350095876
:10395800036E06AE0FD0000E076E000E086E800EC6
:10396800096E0450075C046E05500858056E065031
:103978000958066E000E011A000E021A800E031A6C
:10398800000E041A000E051A800E061A0450015C77
:103998000550025806500358D8B002D0D8901200EB
:1039A800D8801200000EA56FA1AF06D0A06DA11F90
:1039B800D8B0A12B010EA56FA3AF04D0A26DA31F91
:1039C800D8B0A32BA251A311D8B418D0010EA46F5C
:1039D80004D0D890A237A337A42BA3AFFAD7A2510B
:1039E800A05DA351A159D8A004D0A251A05FA351B2
:1039F800A15BD890A333A233A42FF1D7A551D8B493
:103A080004D0A06DA11FD8B0A12BA0C0A0F0A1C068
:103A1800A1F01200000E066E02AE06D0016C021E66
:103A2800D8B0022A010E066E04AE04D0036C041E40
:103A3800D8B0042A03500410D8B418D0010E056E6B
:103A480004D0D89003360436052A04AEFAD70350BA
:103A5800015C04500258D8A004D00350015E045001
:103A6800025AD89004320332052EF1D70650D8B442
:103A780004D0016C021ED8B0022A01C001F002C0B5
:103A880002F012000001C16F0001C15182EC20F068
:103A9800A0C0C2F0A1C0C3F0C2C0A0F0C3C0A1F0D2
:103AA800000EA36F050EA26FE4EC21F0A0C0A8F0F1
:103AB800A1C0A9F0FAEC20F0A8C0ACF0A9C0ADF004
:103AC800AAC0AEF0C00EAF6F7F0EB06F440EB16FDC
:103AD8006CEC17F0ACC0BEF0ADC0BFF0AEC0C0F02B
:103AE800BEC0BBF0BFC0BCF0C0C0BDF0120000013A
:103AF800B151B211B311B411D8B424D0010EB56FBD
:103B080006D0D890B137B237B337B437B52BB4AF86
:103B1800F8D7B151AD5DB251AE59B351AF59B451A7
:103B2800B059D8A008D0B151AD5FB251AE5BB35116
:103B3800AF5BB451B05BD890B433B333B233B13365
:103B4800B52FE7D7ADC0ADF0AEC0AEF0AFC0AFF0A7
:103B5800B0C0B0F0120061EC19F080C12DF181C144
:103B68002EF17EC12FF17FC130F17CC131F17DC1D1
:103B780032F1010E0001AA6F010EBEEC1FF0330EE8
:103B88000101006F010E016F310E026FFF0E036F0E
:103B980031C104F132C105F12FC106F130C107F17D
:103BA8002DC108F12EC109F109EC00F0330E000116
:103BB800AE6F010EAF6F0AEC22F012001250131014
:103BC80014101510D8B424D0010E166E06D0D89053
:103BD8001236133614361536162A15AEF8D7125083
:103BE8000E5C13500F581450105815501158D8A087
:103BF80008D012500E5E13500F5A1450105A155018
:103C0800115AD8901532143213321232162EE7D7C1
:103C18000EC00EF00FC00FF010C010F011C011F060
:103C280012008E0EB06F06D0D890AB33AA33A933EA
:103C3800A833B02B000EA815AC6F000EA915AD6FF8
:103C4800000EAA15AE6FFF0EAB15AF6FAC51AD11DC
:103C5800AE11AF11D8A4E8D7A8C0A0F0A9C0A1F0B0
:103C6800AAC0A2F0B0C0A3F0000EA46FB3EC18F085
:103C7800A0C0A8F0A1C0A9F0A2C0AAF01200849424
:103C88008492000E0001A16F190EA06FD0EC21F0F4
:103C9800010EAA6F030E1DEC22F0000E0001A16FA9
:103CA800060EA06FD0EC21F0AA2B030EAA65F2D75E
:103CB800020E1DEC22F0000E0001AA6FAA51DB0FC4
:103CC800D96EDA6ADF50A86F000E4EEC1FF00001C3
:103CD800AA2B030EAA65F2D71200B4EC19F080C122
:103CE80090F081C191F07EC192F07FC193F07CC1C8
:103CF80094F07DC195F0010E0B6E010E01EC20F0E1
:103D0800800E3C6E3D6A310E3E6EFF0E3F6E94C0D3
:103D180040F095C041F092C042F093C043F090C08B
:103D280044F091C045F0BCEC05F0800E0F6E106AAF
:103D380068EC22F012008E0E116E06D0D8900C326C
:103D48000B320A320932112A000E09140D6E000EC8
:103D58000A140E6E000E0B140F6EFF0E0C14106E6C
:103D68000D500E100F101010D8A4E8D709C001F09C
:103D78000AC002F00BC003F011C004F0000E056E7B
:103D88000AEC19F001C009F002C00AF003C00BF0F8
:103D98001200AD6F1FD0010EA86F000E4EEC1FF081
:103DA800000E0001A16F020EA06FD0EC21F01200EE
:103DB800020EAA6F010EBEEC1FF01200100EA86FC3
:103DC800000E4EEC1FF01200ADC0A8F0010E4EEC34
:103DD8001FF012000001AD51080AD8B4EFD7020A4B
:103DE800D8B4E6D7060AD8B4D6D7EED70E6E1ED00A
:103DF800010E096E000E9AEC1FF0000E026E020E04
:103E0800016E43EC22F01200020E0B6E010E01EC63
:103E180020F01200100E096E000E9AEC1FF012002E
:103E28000EC009F0010E9AEC1FF012000E50080A9D
:103E3800D8B4F0D7020AD8B4E7D7060AD8B4D8D786
:103E4800EFD7F2940101804B812B815104E13C0EA4
:103E5800805DD8A006D07E4B7F2B000E816F000EB0
:103E6800806F7F5104E13C0E7E5DD8A006D07C4B6C
:103E78007D2B000E7F6F000E7E6F7D5104E1180EC2
:103E88007C5DD8A004D0000E7D6F000E7C6F01EC25
:103E980023F012000001A96F0001A9B102D0849497
:103EA80001D08484010E16EC21F0010E16EC21F0ED
:103EB8008492A8390F0B1DEC22F00001A8510F0BBA
:103EC8001DEC22F00001A951D8B405D0320E04002F
:103ED800E82EFDD71200000EA16F020EA06FD0ECE5
:103EE80021F01200040EAA6F010EBEEC1FF02D0E79
:103EF8000101006F010E016F400E026FFF0E036F8C
:103F08006DC104F16EC105F16FC106F170C107F111
:103F180071C108F172C109F109EC00F02D0E000120
:103F2800AE6F010EAF6F0AEC22F012000A6E0AB0F3
:103F380002D0849401D08484010E62EC21F0010E39
:103F480062EC21F0849209380F0B8BEC22F00950B7
:103F58000F0B8BEC22F00A50D8B405D0320E0400B7
:103F6800E82EFDD71200000E026E020E016E43EC21
:103F780022F01200AB6F09D0800E05D0C00E03D01E
:103F8800900E01D0D00EAC6F0ED00001AA51010ADC
:103F9800D8B4F2D7030AD8B4F1D7010AD8B4F0D705
:103FA800070AD8B4EFD7AB05AC27AC518009A86F86
:103FB800000E4EEC1FF012000C0EF66E460EF76E59
:103FC800000EF86E00EEDBF010EE04F00900F5CFFD
:103FD800EEFFE550E150FAE101EE4DF0350EEE6AE4
:103FE800E806FDE10001DF6B7C6A7B6A7D907D92CB
:103FF800000EF86E0001DFEF0FF00C6E09D0800E96
:1040080005D0C00E03D0900E01D0D00E0D6E0DD08D
:104018000B50010AD8B4F3D7030AD8B4F2D7010A6F
:10402800D8B4F1D7070AD8B4F0D70C040D260D5030
:104038008009096E000E9AEC1FF01200D851D911B0
:10404800DA11D8B406D0000ED81B000ED91B800E8A
:10405800DA1BD5C0C9F0D6C0CAF0D7C0CBF0D8C0DB
:10406800CCF0D9C0CDF0DAC0CEF0DDEC12F0C9C08A
:10407800D5F0CAC0D6F0CBC0D7F01200040E0B6E34
:10408800010E01EC20F0690E3C6E3D6A400E3E6E5A
:10409800FF0E3F6E6DC140F06EC141F06FC142F03E
:1040A80070C143F071C144F072C145F0BCEC05F039
:1040B800690E0F6E106A68EC22F0120039503A103F
:1040C8003B10D8B406D0000E391A000E3A1A800EEA
:1040D8003B1A36C02AF037C02BF038C02CF039C054
:1040E8002DF03AC02EF03BC02FF0B1EC13F02AC0EF
:1040F80036F02BC037F02CC038F01200A66FA6C0DF
:10410800A2F00001A247A247C250A219C30BA219EC
:10411800C26EC282C2B2FED7C350C4CFA2F00001A1
:10412800A36BA2C0A3F0A26BA211A46FA351A56FA9
:10413800A4C0A0F0A5C0A1F01200010EAA6F090E3C
:10414800BEEC1FF02D0E0101006F010E016FD80E9D
:10415800026FFF0E036F73C104F174C105F175C1DD
:1041680006F109EC00F02D0E0001AE6F010EAF6FE5
:104178000AEC22F01200A56F000E0001A76FA451EF
:10418800D8B415D0010EA66F03D0D890A437A62BAB
:10419800A4AFFBD7D890A737A451A55DD8A003D06A
:1041A800A451A55FA781D890A433A62FF3D7A75110
:1041B8001200066E000E086E0550D8B415D0010E18
:1041C800076E03D0D8900536072A05AEFBD7D890DE
:1041D80008360550065CD8A003D00550065E088056
:1041E800D8900532072EF3D708501200000EAB6F97
:1041F800A9AF06D0A86DA91FD8B0A92B010EAB6F27
:10420800A8C0A0F0A9C0A1F0A26B8E0EA36FABC08E
:10421800A4F0B3EC18F0A0C0A8F0A1C0A9F0A2C007
:10422800AAF012000001A36F000E0001A56F000E96
:10423800A46F04D004000001A44BA52BA351A06FC8
:10424800A16BA451A05DA151800AA26FA551800A5B
:10425800A259D8A01200EED7010E0B6E090E01EC80
:1042680020F0690E3C6E3D6AD80E3E6EFF0E3F6E22
:1042780073C140F074C141F075C142F0BCEC05F067
:10428800690E0F6E106A68EC22F01200F090000EB2
:10429800026E140E016E43EC22F081B2120001018D
:1042A8007A517B11D8B405D0000E7B6F000E7A6F5F
:1042B8001200000E7B6F010E7A6F1200046E000E62
:1042C800066E000E056E03D00400054A062A045047
:1042D800016E026A0550015C0250800A036E0650A6
:1042E800800A0358D8A01200EFD70BD0A1C0F6FF60
:1042F800A2C0F7FF0800F550EEEC22F00001A14B38
:10430800A22BA1C0F6FFA2C0F7FF0800F5500009D4
:10431800D8B41200EBD7A16F080E0001A26F000EEF
:10432800A36FD890A135A335A36FD890A137A0511A
:10433800A35DD8A002D0A051A35FA22FF2D7A351AA
:104348001200F092000E026E140E016E43EC22F081
:1043580081B41200020E7B187C10D8A405D0000E80
:104368007C6E000E7B6E12007B4A7C2A1200026E65
:10437800080E036E000E046ED89002340434046EE6
:10438800D89002360150045CD8A002D00150045ED7
:10439800032EF2D704501200000EA36F000EA26F76
:1043A80008D0C80E04000400E82EFCD70001A24B78
:1043B800A32BA251A05DA351A159D8A01200F1D7F7
:1043C800A051A203F3CFA4F0F4CFA5F0A051A3030A
:1043D800F350A527A151A203F350A527A4C0A0F02C
:1043E800A5C0A1F012000001A051A111A211D8B4DA
:1043F80006D0000EA01B000EA11B800EA21BA0C0A1
:10440800A0F0A1C0A1F0A2C0A2F012000AD0AEC0D4
:10441800D9FFAFC0DAFFDF50CDEC1EF00001AE4B84
:10442800AF2BAEC0D9FFAFC0DAFFDF50D8B412004F
:10443800EED70001A76FA7C0A6F00001A63B8350E6
:10444800A6190F0BA619836E010E16EC21F08482B3
:10445800040000F08492120001500302F3CF05F02B
:10446800F4CF06F001500402F3500626025003026E
:10447800F350062605C001F006C002F01200000E37
:10448800046E000E036E07D0C80E04000400E82E68
:10449800FCD7034A042A0350015C04500258D8A0F0
:1044A8001200F2D7015002100310D8B406D0000E43
:1044B800011A000E021A800E031A01C001F002C090
:1044C80002F003C003F0120009D00FC0D9FF10C0DA
:1044D800DAFFDF50FAEC1EF00F4A102A0FC0D9FF9E
:1044E80010C0DAFFDF50D8B41200EFD70001A26F76
:1044F800000E0001A16F3A0EA26105D02F0EA26531
:1045080002D0010EA16FA1C0A0F0A0311200086E68
:1045180008C007F0073A835007180F0B0718836E77
:10452800010E62EC21F08482040000F084921200F3
:10453800B896000EAC6E190EAF6E000EB06EAC845D
:10454800AC8A000EAB6EAB88AB8EAE50AE5012008C
:10455800000ED56EF294D580D582D5940B0ED76E09
:10456800DC0ED66E000EF16EF28EF28EF28A12001A
:10457800036E000E026E3A0E036005D02F0E036420
:1045880002D0010E026E02C001F001301200000ECE
:10459800C26E0C0EC16E9368800E946E9268000E07
:1045A800956E000E966E1200AFEC1DF0A1EC20F097
:1045B80007EC1AF051EC1AF076EC1FF0120071ECCF
:1045C8001EF030EC21F09AEC1AF0A4EC1BF042EC4F
:1045D80020F01200A06F01D00400ACA2FDD7A0C04B
:1045E800ADFF1200000EC26EC280890EC06E1200AE
:1045F8000B0ED76EDC0ED66E12000B0ED76EDC0ECD
:0A460800D66E1200280C0106120005
:10FE9A000000803F00204100C842007A44401C46CE
:10FEAA0050C34724744997184BBCBE4C6B6E4E0323
:10FEBA00155079AD60F3497100803FCDCC3DD72311
:10FECA003C12833AB7D138C62737388635C0D6337D
:10FEDA00CC2B32708930E7DB2EE53C1E42A20D01A5
:10FEEA000000000A00000064000000E8030000109F
:10FEFA00270000A086010040420F0080969800006B
:10FF0A00E1F50500CA9A3B0D0D52656164696E6799
:10FF1A0020414E302C20414E312C20414E320D0DC5
:10FF2A000073657475702F253032643A2530326457
:10FF3A003A253032640025342E326656207C20253C
:10FF4A00342E326656202020200020202020202017
:10FF5A0020202020202020202020004255524841E5
:10FF6A004E20415A454D20414E44200057454C43AE
:10FF7A004F4D452046524F4D204D452000204F55AC
:10FF8A005220475245415420574F524B2000465267
:10FF9A004F4D204D5920504152544E455220004E4B
:10FFAA006F726D616C2020202020202020200042CA
:10FFBA00415353414D205455464641484120002063
:10FFCA002057454C434F4D4520544F2020002F5475
:10FFDA003D25342E32664300207C20483A25730999
:10FFEA0000286E756C6C2900433A2573004F46460B
:05FFFA00004F4E000065
:020000040020DA
:08000000FFFFFFFFFFFFFFFF00
:020000040030CA
:0E000000FF011F1FFF8385FF0FC00FE00F40A1
:00000001FF
